{"contracts/CrowdFundingFinal.sol":{"CrowdFundingFinal":{"abi":[{"stateMutability":"payable","type":"fallback"},{"inputs":[{"internalType":"address","name":"_owner","type":"address"},{"internalType":"string","name":"_pName","type":"string"},{"internalType":"string","name":"_pdescription","type":"string"},{"internalType":"uint256","name":"_target","type":"uint256"},{"internalType":"uint256","name":"_deadline","type":"uint256"},{"internalType":"string","name":"_image","type":"string"}],"name":"createProject","outputs":[{"internalType":"uint256","name":"","type":"uint256"}],"stateMutability":"nonpayable","type":"function"},{"inputs":[{"internalType":"uint256","name":"_projectIndex","type":"uint256"},{"internalType":"address payable","name":"_donator","type":"address"},{"internalType":"uint256","name":"_amount","type":"uint256"}],"name":"donateOnProject","outputs":[],"stateMutability":"payable","type":"function"},{"inputs":[{"internalType":"uint256","name":"id","type":"uint256"},{"internalType":"uint256","name":"donatorNum","type":"uint256"}],"name":"getDonators","outputs":[{"internalType":"address","name":"","type":"address"},{"internalType":"uint256","name":"","type":"uint256"}],"stateMutability":"view","type":"function"},{"inputs":[],"name":"getNumProjects","outputs":[{"internalType":"uint256","name":"","type":"uint256"}],"stateMutability":"view","type":"function"},{"inputs":[{"internalType":"uint256","name":"id","type":"uint256"}],"name":"getProject","outputs":[{"internalType":"address","name":"","type":"address"},{"internalType":"string","name":"","type":"string"},{"internalType":"string","name":"","type":"string"},{"internalType":"uint256","name":"","type":"uint256"},{"internalType":"uint256","name":"","type":"uint256"},{"internalType":"uint256","name":"","type":"uint256"},{"internalType":"string","name":"","type":"string"}],"stateMutability":"view","type":"function"},{"inputs":[{"internalType":"uint256","name":"id","type":"uint256"}],"name":"numOfDonators","outputs":[{"internalType":"uint256","name":"","type":"uint256"}],"stateMutability":"view","type":"function"},{"inputs":[],"name":"numProjects","outputs":[{"internalType":"uint256","name":"","type":"uint256"}],"stateMutability":"view","type":"function"},{"inputs":[{"internalType":"uint256","name":"","type":"uint256"}],"name":"projects","outputs":[{"internalType":"address","name":"owner","type":"address"},{"internalType":"string","name":"pName","type":"string"},{"internalType":"string","name":"pdescription","type":"string"},{"internalType":"uint256","name":"target","type":"uint256"},{"internalType":"uint256","name":"timeCreated","type":"uint256"},{"internalType":"uint256","name":"deadline","type":"uint256"},{"internalType":"uint256","name":"amountCollected","type":"uint256"},{"internalType":"string","name":"image","type":"string"}],"stateMutability":"view","type":"function"},{"inputs":[{"internalType":"uint256","name":"_projectIndex","type":"uint256"},{"internalType":"address payable","name":"_pOwner","type":"address"}],"name":"withdrawFunding","outputs":[],"stateMutability":"nonpayable","type":"function"},{"stateMutability":"payable","type":"receive"}],"evm":{"bytecode":{"linkReferences":{},"object":"6080604052600060015534801561001557600080fd5b50611a39806100256000396000f3fe60806040526004361061008a5760003560e01c80635a067baa116100595780635a067baa1461017d578063767ece37146101a8578063ad6836ce146101c4578063f0f3f2c8146101ed578063f64bc5081461023057610091565b8063107046bd1461009357806316ff5b87146100d757806320b39878146101025780632b694e201461013f57610091565b3661009157005b005b34801561009f57600080fd5b506100ba60048036038101906100b59190610d35565b61026d565b6040516100ce989796959493929190610e4b565b60405180910390f35b3480156100e357600080fd5b506100ec61046d565b6040516100f99190610ede565b60405180910390f35b34801561010e57600080fd5b5061012960048036038101906101249190610d35565b610477565b6040516101369190610ede565b60405180910390f35b34801561014b57600080fd5b5061016660048036038101906101619190610ef9565b610499565b604051610174929190610f39565b60405180910390f35b34801561018957600080fd5b50610192610586565b60405161019f9190610ede565b60405180910390f35b6101c260048036038101906101bd9190610fa0565b61058c565b005b3480156101d057600080fd5b506101eb60048036038101906101e69190610ff3565b610769565b005b3480156101f957600080fd5b50610214600480360381019061020f9190610d35565b6108cf565b6040516102279796959493929190611033565b60405180910390f35b34801561023c57600080fd5b5061025760048036038101906102529190611218565b610b62565b6040516102649190610ede565b60405180910390f35b60006020528060005260406000206000915090508060000160009054906101000a900473ffffffffffffffffffffffffffffffffffffffff16908060010180546102b690611328565b80601f01602080910402602001604051908101604052809291908181526020018280546102e290611328565b801561032f5780601f106103045761010080835404028352916020019161032f565b820191906000526020600020905b81548152906001019060200180831161031257829003601f168201915b50505050509080600201805461034490611328565b80601f016020809104026020016040519081016040528092919081815260200182805461037090611328565b80156103bd5780601f10610392576101008083540402835291602001916103bd565b820191906000526020600020905b8154815290600101906020018083116103a057829003601f168201915b5050505050908060030154908060040154908060050154908060060154908060070180546103ea90611328565b80601f016020809104026020016040519081016040528092919081815260200182805461041690611328565b80156104635780601f1061043857610100808354040283529160200191610463565b820191906000526020600020905b81548152906001019060200180831161044657829003601f168201915b5050505050905088565b6000600154905090565b6000806000838152602001908152602001600020600901805490509050919050565b600080600080600086815260200190815260200160002060090180549050116104f7576040517f08c379a00000000000000000000000000000000000000000000000000000000081526004016104ee906113a5565b60405180910390fd5b600080858152602001908152602001600020600801838154811061051e5761051d6113c5565b5b9060005260206000200160009054906101000a900473ffffffffffffffffffffffffffffffffffffffff1660008086815260200190815260200160002060090184815481106105705761056f6113c5565b5b9060005260206000200154915091509250929050565b60015481565b826000808281526020019081526020016000206003015460008083815260200190815260200160002060060154106105f9576040517f08c379a00000000000000000000000000000000000000000000000000000000081526004016105f090611440565b60405180910390fd5b6000806000868152602001908152602001600020905080600801849080600181540180825580915050600190039060005260206000200160009091909190916101000a81548173ffffffffffffffffffffffffffffffffffffffff021916908373ffffffffffffffffffffffffffffffffffffffff1602179055508060090183908060018154018082558091505060019003906000526020600020016000909190919091505560008160000160009054906101000a900473ffffffffffffffffffffffffffffffffffffffff1673ffffffffffffffffffffffffffffffffffffffff16670de0b6b3a7640000856106f0919061148f565b6040516106fc9061151a565b60006040518083038185875af1925050503d8060008114610739576040519150601f19603f3d011682016040523d82523d6000602084013e61073e565b606091505b50509050801561076157838260060154610758919061152f565b82600601819055505b505050505050565b8181600080600084815260200190815260200160002090508173ffffffffffffffffffffffffffffffffffffffff1660008085815260200190815260200160002060000160009054906101000a900473ffffffffffffffffffffffffffffffffffffffff1673ffffffffffffffffffffffffffffffffffffffff1614610824576040517f08c379a000000000000000000000000000000000000000000000000000000000815260040161081b906115f7565b60405180910390fd5b60008473ffffffffffffffffffffffffffffffffffffffff166000808881526020019081526020016000206006015460405161085f9061151a565b60006040518083038185875af1925050503d806000811461089c576040519150601f19603f3d011682016040523d82523d6000602084013e6108a1565b606091505b5050905080156108c7576000806000888152602001908152602001600020600601819055505b505050505050565b60006060806000806000606060008089815260200190815260200160002060000160009054906101000a900473ffffffffffffffffffffffffffffffffffffffff166000808a81526020019081526020016000206001016000808b81526020019081526020016000206002016000808c8152602001908152602001600020600301546000808d815260200190815260200160002060050154670de0b6b3a76400006000808f8152602001908152602001600020600601546109909190611646565b6000808f81526020019081526020016000206007018580546109b190611328565b80601f01602080910402602001604051908101604052809291908181526020018280546109dd90611328565b8015610a2a5780601f106109ff57610100808354040283529160200191610a2a565b820191906000526020600020905b815481529060010190602001808311610a0d57829003601f168201915b50505050509550848054610a3d90611328565b80601f0160208091040260200160405190810160405280929190818152602001828054610a6990611328565b8015610ab65780601f10610a8b57610100808354040283529160200191610ab6565b820191906000526020600020905b815481529060010190602001808311610a9957829003601f168201915b50505050509450808054610ac990611328565b80601f0160208091040260200160405190810160405280929190818152602001828054610af590611328565b8015610b425780601f10610b1757610100808354040283529160200191610b42565b820191906000526020600020905b815481529060010190602001808311610b2557829003601f168201915b505050505090509650965096509650965096509650919395979092949650565b6000806000806001548152602001908152602001600020905042816005015410610bc1576040517f08c379a0000000000000000000000000000000000000000000000000000000008152600401610bb8906116e9565b60405180910390fd5b878160000160006101000a81548173ffffffffffffffffffffffffffffffffffffffff021916908373ffffffffffffffffffffffffffffffffffffffff16021790555086816001019081610c1591906118b5565b5085816002019081610c2791906118b5565b50670de0b6b3a764000085610c3c919061148f565b81600301819055506018603c8042610c549190611646565b610c5e9190611646565b610c689190611646565b81600401819055506018603c8086610c809190611646565b610c8a9190611646565b610c949190611646565b81600501819055506000816006018190555082816007019081610cb791906118b5565b5060016000815480929190610ccb90611987565b919050555060018054610cde91906119cf565b9150509695505050505050565b6000604051905090565b600080fd5b600080fd5b6000819050919050565b610d1281610cff565b8114610d1d57600080fd5b50565b600081359050610d2f81610d09565b92915050565b600060208284031215610d4b57610d4a610cf5565b5b6000610d5984828501610d20565b91505092915050565b600073ffffffffffffffffffffffffffffffffffffffff82169050919050565b6000610d8d82610d62565b9050919050565b610d9d81610d82565b82525050565b600081519050919050565b600082825260208201905092915050565b60005b83811015610ddd578082015181840152602081019050610dc2565b83811115610dec576000848401525b50505050565b6000601f19601f8301169050919050565b6000610e0e82610da3565b610e188185610dae565b9350610e28818560208601610dbf565b610e3181610df2565b840191505092915050565b610e4581610cff565b82525050565b600061010082019050610e61600083018b610d94565b8181036020830152610e73818a610e03565b90508181036040830152610e878189610e03565b9050610e966060830188610e3c565b610ea36080830187610e3c565b610eb060a0830186610e3c565b610ebd60c0830185610e3c565b81810360e0830152610ecf8184610e03565b90509998505050505050505050565b6000602082019050610ef36000830184610e3c565b92915050565b60008060408385031215610f1057610f0f610cf5565b5b6000610f1e85828601610d20565b9250506020610f2f85828601610d20565b9150509250929050565b6000604082019050610f4e6000830185610d94565b610f5b6020830184610e3c565b9392505050565b6000610f6d82610d62565b9050919050565b610f7d81610f62565b8114610f8857600080fd5b50565b600081359050610f9a81610f74565b92915050565b600080600060608486031215610fb957610fb8610cf5565b5b6000610fc786828701610d20565b9350506020610fd886828701610f8b565b9250506040610fe986828701610d20565b9150509250925092565b6000806040838503121561100a57611009610cf5565b5b600061101885828601610d20565b925050602061102985828601610f8b565b9150509250929050565b600060e082019050611048600083018a610d94565b818103602083015261105a8189610e03565b9050818103604083015261106e8188610e03565b905061107d6060830187610e3c565b61108a6080830186610e3c565b61109760a0830185610e3c565b81810360c08301526110a98184610e03565b905098975050505050505050565b6110c081610d82565b81146110cb57600080fd5b50565b6000813590506110dd816110b7565b92915050565b600080fd5b600080fd5b7f4e487b7100000000000000000000000000000000000000000000000000000000600052604160045260246000fd5b61112582610df2565b810181811067ffffffffffffffff82111715611144576111436110ed565b5b80604052505050565b6000611157610ceb565b9050611163828261111c565b919050565b600067ffffffffffffffff821115611183576111826110ed565b5b61118c82610df2565b9050602081019050919050565b82818337600083830152505050565b60006111bb6111b684611168565b61114d565b9050828152602081018484840111156111d7576111d66110e8565b5b6111e2848285611199565b509392505050565b600082601f8301126111ff576111fe6110e3565b5b813561120f8482602086016111a8565b91505092915050565b60008060008060008060c0878903121561123557611234610cf5565b5b600061124389828a016110ce565b965050602087013567ffffffffffffffff81111561126457611263610cfa565b5b61127089828a016111ea565b955050604087013567ffffffffffffffff81111561129157611290610cfa565b5b61129d89828a016111ea565b94505060606112ae89828a01610d20565b93505060806112bf89828a01610d20565b92505060a087013567ffffffffffffffff8111156112e0576112df610cfa565b5b6112ec89828a016111ea565b9150509295509295509295565b7f4e487b7100000000000000000000000000000000000000000000000000000000600052602260045260246000fd5b6000600282049050600182168061134057607f821691505b602082108103611353576113526112f9565b5b50919050565b7f4e6f20646f6e6174696f6e2068617665206265656e206d616465000000000000600082015250565b600061138f601a83610dae565b915061139a82611359565b602082019050919050565b600060208201905081810360008301526113be81611382565b9050919050565b7f4e487b7100000000000000000000000000000000000000000000000000000000600052603260045260246000fd5b7f54686520646561646c696e652068617320657863656564656400000000000000600082015250565b600061142a601983610dae565b9150611435826113f4565b602082019050919050565b600060208201905081810360008301526114598161141d565b9050919050565b7f4e487b7100000000000000000000000000000000000000000000000000000000600052601160045260246000fd5b600061149a82610cff565b91506114a583610cff565b9250817fffffffffffffffffffffffffffffffffffffffffffffffffffffffffffffffff04831182151516156114de576114dd611460565b5b828202905092915050565b600081905092915050565b50565b60006115046000836114e9565b915061150f826114f4565b600082019050919050565b6000611525826114f7565b9150819050919050565b600061153a82610cff565b915061154583610cff565b9250827fffffffffffffffffffffffffffffffffffffffffffffffffffffffffffffffff0382111561157a57611579611460565b5b828201905092915050565b7f536f7272792c206f6e6c7920746865206f776e6572206f66207468652070726f60008201527f6a6563742063616e207769746864726177207468652066756e64732e00000000602082015250565b60006115e1603c83610dae565b91506115ec82611585565b604082019050919050565b60006020820190508181036000830152611610816115d4565b9050919050565b7f4e487b7100000000000000000000000000000000000000000000000000000000600052601260045260246000fd5b600061165182610cff565b915061165c83610cff565b92508261166c5761166b611617565b5b828204905092915050565b7f54686520646561646c696e652073686f756c64206265206f746865722074686160008201527f6e20746f64617900000000000000000000000000000000000000000000000000602082015250565b60006116d3602783610dae565b91506116de82611677565b604082019050919050565b60006020820190508181036000830152611702816116c6565b9050919050565b60008190508160005260206000209050919050565b60006020601f8301049050919050565b600082821b905092915050565b60006008830261176b7fffffffffffffffffffffffffffffffffffffffffffffffffffffffffffffffff8261172e565b611775868361172e565b95508019841693508086168417925050509392505050565b6000819050919050565b60006117b26117ad6117a884610cff565b61178d565b610cff565b9050919050565b6000819050919050565b6117cc83611797565b6117e06117d8826117b9565b84845461173b565b825550505050565b600090565b6117f56117e8565b6118008184846117c3565b505050565b5b81811015611824576118196000826117ed565b600181019050611806565b5050565b601f8211156118695761183a81611709565b6118438461171e565b81016020851015611852578190505b61186661185e8561171e565b830182611805565b50505b505050565b600082821c905092915050565b600061188c6000198460080261186e565b1980831691505092915050565b60006118a5838361187b565b9150826002028217905092915050565b6118be82610da3565b67ffffffffffffffff8111156118d7576118d66110ed565b5b6118e18254611328565b6118ec828285611828565b600060209050601f83116001811461191f576000841561190d578287015190505b6119178582611899565b86555061197f565b601f19841661192d86611709565b60005b8281101561195557848901518255600182019150602085019450602081019050611930565b86831015611972578489015161196e601f89168261187b565b8355505b6001600288020188555050505b505050505050565b600061199282610cff565b91507fffffffffffffffffffffffffffffffffffffffffffffffffffffffffffffffff82036119c4576119c3611460565b5b600182019050919050565b60006119da82610cff565b91506119e583610cff565b9250828210156119f8576119f7611460565b5b82820390509291505056fea2646970667358221220ace1c66b91eb95d9e56ea3a20ce46490ade9efc2b20481a1449c0a5dee0c30cc64736f6c634300080f0033","opcodes":"PUSH1 0x80 PUSH1 0x40 MSTORE PUSH1 0x0 PUSH1 0x1 SSTORE CALLVALUE DUP1 ISZERO PUSH2 0x15 JUMPI PUSH1 0x0 DUP1 REVERT JUMPDEST POP PUSH2 0x1A39 DUP1 PUSH2 0x25 PUSH1 0x0 CODECOPY PUSH1 0x0 RETURN INVALID PUSH1 0x80 PUSH1 0x40 MSTORE PUSH1 0x4 CALLDATASIZE LT PUSH2 0x8A JUMPI PUSH1 0x0 CALLDATALOAD PUSH1 0xE0 SHR DUP1 PUSH4 0x5A067BAA GT PUSH2 0x59 JUMPI DUP1 PUSH4 0x5A067BAA EQ PUSH2 0x17D JUMPI DUP1 PUSH4 0x767ECE37 EQ PUSH2 0x1A8 JUMPI DUP1 PUSH4 0xAD6836CE EQ PUSH2 0x1C4 JUMPI DUP1 PUSH4 0xF0F3F2C8 EQ PUSH2 0x1ED JUMPI DUP1 PUSH4 0xF64BC508 EQ PUSH2 0x230 JUMPI PUSH2 0x91 JUMP JUMPDEST DUP1 PUSH4 0x107046BD EQ PUSH2 0x93 JUMPI DUP1 PUSH4 0x16FF5B87 EQ PUSH2 0xD7 JUMPI DUP1 PUSH4 0x20B39878 EQ PUSH2 0x102 JUMPI DUP1 PUSH4 0x2B694E20 EQ PUSH2 0x13F JUMPI PUSH2 0x91 JUMP JUMPDEST CALLDATASIZE PUSH2 0x91 JUMPI STOP JUMPDEST STOP JUMPDEST CALLVALUE DUP1 ISZERO PUSH2 0x9F JUMPI PUSH1 0x0 DUP1 REVERT JUMPDEST POP PUSH2 0xBA PUSH1 0x4 DUP1 CALLDATASIZE SUB DUP2 ADD SWAP1 PUSH2 0xB5 SWAP2 SWAP1 PUSH2 0xD35 JUMP JUMPDEST PUSH2 0x26D JUMP JUMPDEST PUSH1 0x40 MLOAD PUSH2 0xCE SWAP9 SWAP8 SWAP7 SWAP6 SWAP5 SWAP4 SWAP3 SWAP2 SWAP1 PUSH2 0xE4B JUMP JUMPDEST PUSH1 0x40 MLOAD DUP1 SWAP2 SUB SWAP1 RETURN JUMPDEST CALLVALUE DUP1 ISZERO PUSH2 0xE3 JUMPI PUSH1 0x0 DUP1 REVERT JUMPDEST POP PUSH2 0xEC PUSH2 0x46D JUMP JUMPDEST PUSH1 0x40 MLOAD PUSH2 0xF9 SWAP2 SWAP1 PUSH2 0xEDE JUMP JUMPDEST PUSH1 0x40 MLOAD DUP1 SWAP2 SUB SWAP1 RETURN JUMPDEST CALLVALUE DUP1 ISZERO PUSH2 0x10E JUMPI PUSH1 0x0 DUP1 REVERT JUMPDEST POP PUSH2 0x129 PUSH1 0x4 DUP1 CALLDATASIZE SUB DUP2 ADD SWAP1 PUSH2 0x124 SWAP2 SWAP1 PUSH2 0xD35 JUMP JUMPDEST PUSH2 0x477 JUMP JUMPDEST PUSH1 0x40 MLOAD PUSH2 0x136 SWAP2 SWAP1 PUSH2 0xEDE JUMP JUMPDEST PUSH1 0x40 MLOAD DUP1 SWAP2 SUB SWAP1 RETURN JUMPDEST CALLVALUE DUP1 ISZERO PUSH2 0x14B JUMPI PUSH1 0x0 DUP1 REVERT JUMPDEST POP PUSH2 0x166 PUSH1 0x4 DUP1 CALLDATASIZE SUB DUP2 ADD SWAP1 PUSH2 0x161 SWAP2 SWAP1 PUSH2 0xEF9 JUMP JUMPDEST PUSH2 0x499 JUMP JUMPDEST PUSH1 0x40 MLOAD PUSH2 0x174 SWAP3 SWAP2 SWAP1 PUSH2 0xF39 JUMP JUMPDEST PUSH1 0x40 MLOAD DUP1 SWAP2 SUB SWAP1 RETURN JUMPDEST CALLVALUE DUP1 ISZERO PUSH2 0x189 JUMPI PUSH1 0x0 DUP1 REVERT JUMPDEST POP PUSH2 0x192 PUSH2 0x586 JUMP JUMPDEST PUSH1 0x40 MLOAD PUSH2 0x19F SWAP2 SWAP1 PUSH2 0xEDE JUMP JUMPDEST PUSH1 0x40 MLOAD DUP1 SWAP2 SUB SWAP1 RETURN JUMPDEST PUSH2 0x1C2 PUSH1 0x4 DUP1 CALLDATASIZE SUB DUP2 ADD SWAP1 PUSH2 0x1BD SWAP2 SWAP1 PUSH2 0xFA0 JUMP JUMPDEST PUSH2 0x58C JUMP JUMPDEST STOP JUMPDEST CALLVALUE DUP1 ISZERO PUSH2 0x1D0 JUMPI PUSH1 0x0 DUP1 REVERT JUMPDEST POP PUSH2 0x1EB PUSH1 0x4 DUP1 CALLDATASIZE SUB DUP2 ADD SWAP1 PUSH2 0x1E6 SWAP2 SWAP1 PUSH2 0xFF3 JUMP JUMPDEST PUSH2 0x769 JUMP JUMPDEST STOP JUMPDEST CALLVALUE DUP1 ISZERO PUSH2 0x1F9 JUMPI PUSH1 0x0 DUP1 REVERT JUMPDEST POP PUSH2 0x214 PUSH1 0x4 DUP1 CALLDATASIZE SUB DUP2 ADD SWAP1 PUSH2 0x20F SWAP2 SWAP1 PUSH2 0xD35 JUMP JUMPDEST PUSH2 0x8CF JUMP JUMPDEST PUSH1 0x40 MLOAD PUSH2 0x227 SWAP8 SWAP7 SWAP6 SWAP5 SWAP4 SWAP3 SWAP2 SWAP1 PUSH2 0x1033 JUMP JUMPDEST PUSH1 0x40 MLOAD DUP1 SWAP2 SUB SWAP1 RETURN JUMPDEST CALLVALUE DUP1 ISZERO PUSH2 0x23C JUMPI PUSH1 0x0 DUP1 REVERT JUMPDEST POP PUSH2 0x257 PUSH1 0x4 DUP1 CALLDATASIZE SUB DUP2 ADD SWAP1 PUSH2 0x252 SWAP2 SWAP1 PUSH2 0x1218 JUMP JUMPDEST PUSH2 0xB62 JUMP JUMPDEST PUSH1 0x40 MLOAD PUSH2 0x264 SWAP2 SWAP1 PUSH2 0xEDE JUMP JUMPDEST PUSH1 0x40 MLOAD DUP1 SWAP2 SUB SWAP1 RETURN JUMPDEST PUSH1 0x0 PUSH1 0x20 MSTORE DUP1 PUSH1 0x0 MSTORE PUSH1 0x40 PUSH1 0x0 KECCAK256 PUSH1 0x0 SWAP2 POP SWAP1 POP DUP1 PUSH1 0x0 ADD PUSH1 0x0 SWAP1 SLOAD SWAP1 PUSH2 0x100 EXP SWAP1 DIV PUSH20 0xFFFFFFFFFFFFFFFFFFFFFFFFFFFFFFFFFFFFFFFF AND SWAP1 DUP1 PUSH1 0x1 ADD DUP1 SLOAD PUSH2 0x2B6 SWAP1 PUSH2 0x1328 JUMP JUMPDEST DUP1 PUSH1 0x1F ADD PUSH1 0x20 DUP1 SWAP2 DIV MUL PUSH1 0x20 ADD PUSH1 0x40 MLOAD SWAP1 DUP2 ADD PUSH1 0x40 MSTORE DUP1 SWAP3 SWAP2 SWAP1 DUP2 DUP2 MSTORE PUSH1 0x20 ADD DUP3 DUP1 SLOAD PUSH2 0x2E2 SWAP1 PUSH2 0x1328 JUMP JUMPDEST DUP1 ISZERO PUSH2 0x32F JUMPI DUP1 PUSH1 0x1F LT PUSH2 0x304 JUMPI PUSH2 0x100 DUP1 DUP4 SLOAD DIV MUL DUP4 MSTORE SWAP2 PUSH1 0x20 ADD SWAP2 PUSH2 0x32F JUMP JUMPDEST DUP3 ADD SWAP2 SWAP1 PUSH1 0x0 MSTORE PUSH1 0x20 PUSH1 0x0 KECCAK256 SWAP1 JUMPDEST DUP2 SLOAD DUP2 MSTORE SWAP1 PUSH1 0x1 ADD SWAP1 PUSH1 0x20 ADD DUP1 DUP4 GT PUSH2 0x312 JUMPI DUP3 SWAP1 SUB PUSH1 0x1F AND DUP3 ADD SWAP2 JUMPDEST POP POP POP POP POP SWAP1 DUP1 PUSH1 0x2 ADD DUP1 SLOAD PUSH2 0x344 SWAP1 PUSH2 0x1328 JUMP JUMPDEST DUP1 PUSH1 0x1F ADD PUSH1 0x20 DUP1 SWAP2 DIV MUL PUSH1 0x20 ADD PUSH1 0x40 MLOAD SWAP1 DUP2 ADD PUSH1 0x40 MSTORE DUP1 SWAP3 SWAP2 SWAP1 DUP2 DUP2 MSTORE PUSH1 0x20 ADD DUP3 DUP1 SLOAD PUSH2 0x370 SWAP1 PUSH2 0x1328 JUMP JUMPDEST DUP1 ISZERO PUSH2 0x3BD JUMPI DUP1 PUSH1 0x1F LT PUSH2 0x392 JUMPI PUSH2 0x100 DUP1 DUP4 SLOAD DIV MUL DUP4 MSTORE SWAP2 PUSH1 0x20 ADD SWAP2 PUSH2 0x3BD JUMP JUMPDEST DUP3 ADD SWAP2 SWAP1 PUSH1 0x0 MSTORE PUSH1 0x20 PUSH1 0x0 KECCAK256 SWAP1 JUMPDEST DUP2 SLOAD DUP2 MSTORE SWAP1 PUSH1 0x1 ADD SWAP1 PUSH1 0x20 ADD DUP1 DUP4 GT PUSH2 0x3A0 JUMPI DUP3 SWAP1 SUB PUSH1 0x1F AND DUP3 ADD SWAP2 JUMPDEST POP POP POP POP POP SWAP1 DUP1 PUSH1 0x3 ADD SLOAD SWAP1 DUP1 PUSH1 0x4 ADD SLOAD SWAP1 DUP1 PUSH1 0x5 ADD SLOAD SWAP1 DUP1 PUSH1 0x6 ADD SLOAD SWAP1 DUP1 PUSH1 0x7 ADD DUP1 SLOAD PUSH2 0x3EA SWAP1 PUSH2 0x1328 JUMP JUMPDEST DUP1 PUSH1 0x1F ADD PUSH1 0x20 DUP1 SWAP2 DIV MUL PUSH1 0x20 ADD PUSH1 0x40 MLOAD SWAP1 DUP2 ADD PUSH1 0x40 MSTORE DUP1 SWAP3 SWAP2 SWAP1 DUP2 DUP2 MSTORE PUSH1 0x20 ADD DUP3 DUP1 SLOAD PUSH2 0x416 SWAP1 PUSH2 0x1328 JUMP JUMPDEST DUP1 ISZERO PUSH2 0x463 JUMPI DUP1 PUSH1 0x1F LT PUSH2 0x438 JUMPI PUSH2 0x100 DUP1 DUP4 SLOAD DIV MUL DUP4 MSTORE SWAP2 PUSH1 0x20 ADD SWAP2 PUSH2 0x463 JUMP JUMPDEST DUP3 ADD SWAP2 SWAP1 PUSH1 0x0 MSTORE PUSH1 0x20 PUSH1 0x0 KECCAK256 SWAP1 JUMPDEST DUP2 SLOAD DUP2 MSTORE SWAP1 PUSH1 0x1 ADD SWAP1 PUSH1 0x20 ADD DUP1 DUP4 GT PUSH2 0x446 JUMPI DUP3 SWAP1 SUB PUSH1 0x1F AND DUP3 ADD SWAP2 JUMPDEST POP POP POP POP POP SWAP1 POP DUP9 JUMP JUMPDEST PUSH1 0x0 PUSH1 0x1 SLOAD SWAP1 POP SWAP1 JUMP JUMPDEST PUSH1 0x0 DUP1 PUSH1 0x0 DUP4 DUP2 MSTORE PUSH1 0x20 ADD SWAP1 DUP2 MSTORE PUSH1 0x20 ADD PUSH1 0x0 KECCAK256 PUSH1 0x9 ADD DUP1 SLOAD SWAP1 POP SWAP1 POP SWAP2 SWAP1 POP JUMP JUMPDEST PUSH1 0x0 DUP1 PUSH1 0x0 DUP1 PUSH1 0x0 DUP7 DUP2 MSTORE PUSH1 0x20 ADD SWAP1 DUP2 MSTORE PUSH1 0x20 ADD PUSH1 0x0 KECCAK256 PUSH1 0x9 ADD DUP1 SLOAD SWAP1 POP GT PUSH2 0x4F7 JUMPI PUSH1 0x40 MLOAD PUSH32 0x8C379A000000000000000000000000000000000000000000000000000000000 DUP2 MSTORE PUSH1 0x4 ADD PUSH2 0x4EE SWAP1 PUSH2 0x13A5 JUMP JUMPDEST PUSH1 0x40 MLOAD DUP1 SWAP2 SUB SWAP1 REVERT JUMPDEST PUSH1 0x0 DUP1 DUP6 DUP2 MSTORE PUSH1 0x20 ADD SWAP1 DUP2 MSTORE PUSH1 0x20 ADD PUSH1 0x0 KECCAK256 PUSH1 0x8 ADD DUP4 DUP2 SLOAD DUP2 LT PUSH2 0x51E JUMPI PUSH2 0x51D PUSH2 0x13C5 JUMP JUMPDEST JUMPDEST SWAP1 PUSH1 0x0 MSTORE PUSH1 0x20 PUSH1 0x0 KECCAK256 ADD PUSH1 0x0 SWAP1 SLOAD SWAP1 PUSH2 0x100 EXP SWAP1 DIV PUSH20 0xFFFFFFFFFFFFFFFFFFFFFFFFFFFFFFFFFFFFFFFF AND PUSH1 0x0 DUP1 DUP7 DUP2 MSTORE PUSH1 0x20 ADD SWAP1 DUP2 MSTORE PUSH1 0x20 ADD PUSH1 0x0 KECCAK256 PUSH1 0x9 ADD DUP5 DUP2 SLOAD DUP2 LT PUSH2 0x570 JUMPI PUSH2 0x56F PUSH2 0x13C5 JUMP JUMPDEST JUMPDEST SWAP1 PUSH1 0x0 MSTORE PUSH1 0x20 PUSH1 0x0 KECCAK256 ADD SLOAD SWAP2 POP SWAP2 POP SWAP3 POP SWAP3 SWAP1 POP JUMP JUMPDEST PUSH1 0x1 SLOAD DUP2 JUMP JUMPDEST DUP3 PUSH1 0x0 DUP1 DUP3 DUP2 MSTORE PUSH1 0x20 ADD SWAP1 DUP2 MSTORE PUSH1 0x20 ADD PUSH1 0x0 KECCAK256 PUSH1 0x3 ADD SLOAD PUSH1 0x0 DUP1 DUP4 DUP2 MSTORE PUSH1 0x20 ADD SWAP1 DUP2 MSTORE PUSH1 0x20 ADD PUSH1 0x0 KECCAK256 PUSH1 0x6 ADD SLOAD LT PUSH2 0x5F9 JUMPI PUSH1 0x40 MLOAD PUSH32 0x8C379A000000000000000000000000000000000000000000000000000000000 DUP2 MSTORE PUSH1 0x4 ADD PUSH2 0x5F0 SWAP1 PUSH2 0x1440 JUMP JUMPDEST PUSH1 0x40 MLOAD DUP1 SWAP2 SUB SWAP1 REVERT JUMPDEST PUSH1 0x0 DUP1 PUSH1 0x0 DUP7 DUP2 MSTORE PUSH1 0x20 ADD SWAP1 DUP2 MSTORE PUSH1 0x20 ADD PUSH1 0x0 KECCAK256 SWAP1 POP DUP1 PUSH1 0x8 ADD DUP5 SWAP1 DUP1 PUSH1 0x1 DUP2 SLOAD ADD DUP1 DUP3 SSTORE DUP1 SWAP2 POP POP PUSH1 0x1 SWAP1 SUB SWAP1 PUSH1 0x0 MSTORE PUSH1 0x20 PUSH1 0x0 KECCAK256 ADD PUSH1 0x0 SWAP1 SWAP2 SWAP1 SWAP2 SWAP1 SWAP2 PUSH2 0x100 EXP DUP2 SLOAD DUP2 PUSH20 0xFFFFFFFFFFFFFFFFFFFFFFFFFFFFFFFFFFFFFFFF MUL NOT AND SWAP1 DUP4 PUSH20 0xFFFFFFFFFFFFFFFFFFFFFFFFFFFFFFFFFFFFFFFF AND MUL OR SWAP1 SSTORE POP DUP1 PUSH1 0x9 ADD DUP4 SWAP1 DUP1 PUSH1 0x1 DUP2 SLOAD ADD DUP1 DUP3 SSTORE DUP1 SWAP2 POP POP PUSH1 0x1 SWAP1 SUB SWAP1 PUSH1 0x0 MSTORE PUSH1 0x20 PUSH1 0x0 KECCAK256 ADD PUSH1 0x0 SWAP1 SWAP2 SWAP1 SWAP2 SWAP1 SWAP2 POP SSTORE PUSH1 0x0 DUP2 PUSH1 0x0 ADD PUSH1 0x0 SWAP1 SLOAD SWAP1 PUSH2 0x100 EXP SWAP1 DIV PUSH20 0xFFFFFFFFFFFFFFFFFFFFFFFFFFFFFFFFFFFFFFFF AND PUSH20 0xFFFFFFFFFFFFFFFFFFFFFFFFFFFFFFFFFFFFFFFF AND PUSH8 0xDE0B6B3A7640000 DUP6 PUSH2 0x6F0 SWAP2 SWAP1 PUSH2 0x148F JUMP JUMPDEST PUSH1 0x40 MLOAD PUSH2 0x6FC SWAP1 PUSH2 0x151A JUMP JUMPDEST PUSH1 0x0 PUSH1 0x40 MLOAD DUP1 DUP4 SUB DUP2 DUP6 DUP8 GAS CALL SWAP3 POP POP POP RETURNDATASIZE DUP1 PUSH1 0x0 DUP2 EQ PUSH2 0x739 JUMPI PUSH1 0x40 MLOAD SWAP2 POP PUSH1 0x1F NOT PUSH1 0x3F RETURNDATASIZE ADD AND DUP3 ADD PUSH1 0x40 MSTORE RETURNDATASIZE DUP3 MSTORE RETURNDATASIZE PUSH1 0x0 PUSH1 0x20 DUP5 ADD RETURNDATACOPY PUSH2 0x73E JUMP JUMPDEST PUSH1 0x60 SWAP2 POP JUMPDEST POP POP SWAP1 POP DUP1 ISZERO PUSH2 0x761 JUMPI DUP4 DUP3 PUSH1 0x6 ADD SLOAD PUSH2 0x758 SWAP2 SWAP1 PUSH2 0x152F JUMP JUMPDEST DUP3 PUSH1 0x6 ADD DUP2 SWAP1 SSTORE POP JUMPDEST POP POP POP POP POP POP JUMP JUMPDEST DUP2 DUP2 PUSH1 0x0 DUP1 PUSH1 0x0 DUP5 DUP2 MSTORE PUSH1 0x20 ADD SWAP1 DUP2 MSTORE PUSH1 0x20 ADD PUSH1 0x0 KECCAK256 SWAP1 POP DUP2 PUSH20 0xFFFFFFFFFFFFFFFFFFFFFFFFFFFFFFFFFFFFFFFF AND PUSH1 0x0 DUP1 DUP6 DUP2 MSTORE PUSH1 0x20 ADD SWAP1 DUP2 MSTORE PUSH1 0x20 ADD PUSH1 0x0 KECCAK256 PUSH1 0x0 ADD PUSH1 0x0 SWAP1 SLOAD SWAP1 PUSH2 0x100 EXP SWAP1 DIV PUSH20 0xFFFFFFFFFFFFFFFFFFFFFFFFFFFFFFFFFFFFFFFF AND PUSH20 0xFFFFFFFFFFFFFFFFFFFFFFFFFFFFFFFFFFFFFFFF AND EQ PUSH2 0x824 JUMPI PUSH1 0x40 MLOAD PUSH32 0x8C379A000000000000000000000000000000000000000000000000000000000 DUP2 MSTORE PUSH1 0x4 ADD PUSH2 0x81B SWAP1 PUSH2 0x15F7 JUMP JUMPDEST PUSH1 0x40 MLOAD DUP1 SWAP2 SUB SWAP1 REVERT JUMPDEST PUSH1 0x0 DUP5 PUSH20 0xFFFFFFFFFFFFFFFFFFFFFFFFFFFFFFFFFFFFFFFF AND PUSH1 0x0 DUP1 DUP9 DUP2 MSTORE PUSH1 0x20 ADD SWAP1 DUP2 MSTORE PUSH1 0x20 ADD PUSH1 0x0 KECCAK256 PUSH1 0x6 ADD SLOAD PUSH1 0x40 MLOAD PUSH2 0x85F SWAP1 PUSH2 0x151A JUMP JUMPDEST PUSH1 0x0 PUSH1 0x40 MLOAD DUP1 DUP4 SUB DUP2 DUP6 DUP8 GAS CALL SWAP3 POP POP POP RETURNDATASIZE DUP1 PUSH1 0x0 DUP2 EQ PUSH2 0x89C JUMPI PUSH1 0x40 MLOAD SWAP2 POP PUSH1 0x1F NOT PUSH1 0x3F RETURNDATASIZE ADD AND DUP3 ADD PUSH1 0x40 MSTORE RETURNDATASIZE DUP3 MSTORE RETURNDATASIZE PUSH1 0x0 PUSH1 0x20 DUP5 ADD RETURNDATACOPY PUSH2 0x8A1 JUMP JUMPDEST PUSH1 0x60 SWAP2 POP JUMPDEST POP POP SWAP1 POP DUP1 ISZERO PUSH2 0x8C7 JUMPI PUSH1 0x0 DUP1 PUSH1 0x0 DUP9 DUP2 MSTORE PUSH1 0x20 ADD SWAP1 DUP2 MSTORE PUSH1 0x20 ADD PUSH1 0x0 KECCAK256 PUSH1 0x6 ADD DUP2 SWAP1 SSTORE POP JUMPDEST POP POP POP POP POP POP JUMP JUMPDEST PUSH1 0x0 PUSH1 0x60 DUP1 PUSH1 0x0 DUP1 PUSH1 0x0 PUSH1 0x60 PUSH1 0x0 DUP1 DUP10 DUP2 MSTORE PUSH1 0x20 ADD SWAP1 DUP2 MSTORE PUSH1 0x20 ADD PUSH1 0x0 KECCAK256 PUSH1 0x0 ADD PUSH1 0x0 SWAP1 SLOAD SWAP1 PUSH2 0x100 EXP SWAP1 DIV PUSH20 0xFFFFFFFFFFFFFFFFFFFFFFFFFFFFFFFFFFFFFFFF AND PUSH1 0x0 DUP1 DUP11 DUP2 MSTORE PUSH1 0x20 ADD SWAP1 DUP2 MSTORE PUSH1 0x20 ADD PUSH1 0x0 KECCAK256 PUSH1 0x1 ADD PUSH1 0x0 DUP1 DUP12 DUP2 MSTORE PUSH1 0x20 ADD SWAP1 DUP2 MSTORE PUSH1 0x20 ADD PUSH1 0x0 KECCAK256 PUSH1 0x2 ADD PUSH1 0x0 DUP1 DUP13 DUP2 MSTORE PUSH1 0x20 ADD SWAP1 DUP2 MSTORE PUSH1 0x20 ADD PUSH1 0x0 KECCAK256 PUSH1 0x3 ADD SLOAD PUSH1 0x0 DUP1 DUP14 DUP2 MSTORE PUSH1 0x20 ADD SWAP1 DUP2 MSTORE PUSH1 0x20 ADD PUSH1 0x0 KECCAK256 PUSH1 0x5 ADD SLOAD PUSH8 0xDE0B6B3A7640000 PUSH1 0x0 DUP1 DUP16 DUP2 MSTORE PUSH1 0x20 ADD SWAP1 DUP2 MSTORE PUSH1 0x20 ADD PUSH1 0x0 KECCAK256 PUSH1 0x6 ADD SLOAD PUSH2 0x990 SWAP2 SWAP1 PUSH2 0x1646 JUMP JUMPDEST PUSH1 0x0 DUP1 DUP16 DUP2 MSTORE PUSH1 0x20 ADD SWAP1 DUP2 MSTORE PUSH1 0x20 ADD PUSH1 0x0 KECCAK256 PUSH1 0x7 ADD DUP6 DUP1 SLOAD PUSH2 0x9B1 SWAP1 PUSH2 0x1328 JUMP JUMPDEST DUP1 PUSH1 0x1F ADD PUSH1 0x20 DUP1 SWAP2 DIV MUL PUSH1 0x20 ADD PUSH1 0x40 MLOAD SWAP1 DUP2 ADD PUSH1 0x40 MSTORE DUP1 SWAP3 SWAP2 SWAP1 DUP2 DUP2 MSTORE PUSH1 0x20 ADD DUP3 DUP1 SLOAD PUSH2 0x9DD SWAP1 PUSH2 0x1328 JUMP JUMPDEST DUP1 ISZERO PUSH2 0xA2A JUMPI DUP1 PUSH1 0x1F LT PUSH2 0x9FF JUMPI PUSH2 0x100 DUP1 DUP4 SLOAD DIV MUL DUP4 MSTORE SWAP2 PUSH1 0x20 ADD SWAP2 PUSH2 0xA2A JUMP JUMPDEST DUP3 ADD SWAP2 SWAP1 PUSH1 0x0 MSTORE PUSH1 0x20 PUSH1 0x0 KECCAK256 SWAP1 JUMPDEST DUP2 SLOAD DUP2 MSTORE SWAP1 PUSH1 0x1 ADD SWAP1 PUSH1 0x20 ADD DUP1 DUP4 GT PUSH2 0xA0D JUMPI DUP3 SWAP1 SUB PUSH1 0x1F AND DUP3 ADD SWAP2 JUMPDEST POP POP POP POP POP SWAP6 POP DUP5 DUP1 SLOAD PUSH2 0xA3D SWAP1 PUSH2 0x1328 JUMP JUMPDEST DUP1 PUSH1 0x1F ADD PUSH1 0x20 DUP1 SWAP2 DIV MUL PUSH1 0x20 ADD PUSH1 0x40 MLOAD SWAP1 DUP2 ADD PUSH1 0x40 MSTORE DUP1 SWAP3 SWAP2 SWAP1 DUP2 DUP2 MSTORE PUSH1 0x20 ADD DUP3 DUP1 SLOAD PUSH2 0xA69 SWAP1 PUSH2 0x1328 JUMP JUMPDEST DUP1 ISZERO PUSH2 0xAB6 JUMPI DUP1 PUSH1 0x1F LT PUSH2 0xA8B JUMPI PUSH2 0x100 DUP1 DUP4 SLOAD DIV MUL DUP4 MSTORE SWAP2 PUSH1 0x20 ADD SWAP2 PUSH2 0xAB6 JUMP JUMPDEST DUP3 ADD SWAP2 SWAP1 PUSH1 0x0 MSTORE PUSH1 0x20 PUSH1 0x0 KECCAK256 SWAP1 JUMPDEST DUP2 SLOAD DUP2 MSTORE SWAP1 PUSH1 0x1 ADD SWAP1 PUSH1 0x20 ADD DUP1 DUP4 GT PUSH2 0xA99 JUMPI DUP3 SWAP1 SUB PUSH1 0x1F AND DUP3 ADD SWAP2 JUMPDEST POP POP POP POP POP SWAP5 POP DUP1 DUP1 SLOAD PUSH2 0xAC9 SWAP1 PUSH2 0x1328 JUMP JUMPDEST DUP1 PUSH1 0x1F ADD PUSH1 0x20 DUP1 SWAP2 DIV MUL PUSH1 0x20 ADD PUSH1 0x40 MLOAD SWAP1 DUP2 ADD PUSH1 0x40 MSTORE DUP1 SWAP3 SWAP2 SWAP1 DUP2 DUP2 MSTORE PUSH1 0x20 ADD DUP3 DUP1 SLOAD PUSH2 0xAF5 SWAP1 PUSH2 0x1328 JUMP JUMPDEST DUP1 ISZERO PUSH2 0xB42 JUMPI DUP1 PUSH1 0x1F LT PUSH2 0xB17 JUMPI PUSH2 0x100 DUP1 DUP4 SLOAD DIV MUL DUP4 MSTORE SWAP2 PUSH1 0x20 ADD SWAP2 PUSH2 0xB42 JUMP JUMPDEST DUP3 ADD SWAP2 SWAP1 PUSH1 0x0 MSTORE PUSH1 0x20 PUSH1 0x0 KECCAK256 SWAP1 JUMPDEST DUP2 SLOAD DUP2 MSTORE SWAP1 PUSH1 0x1 ADD SWAP1 PUSH1 0x20 ADD DUP1 DUP4 GT PUSH2 0xB25 JUMPI DUP3 SWAP1 SUB PUSH1 0x1F AND DUP3 ADD SWAP2 JUMPDEST POP POP POP POP POP SWAP1 POP SWAP7 POP SWAP7 POP SWAP7 POP SWAP7 POP SWAP7 POP SWAP7 POP SWAP7 POP SWAP2 SWAP4 SWAP6 SWAP8 SWAP1 SWAP3 SWAP5 SWAP7 POP JUMP JUMPDEST PUSH1 0x0 DUP1 PUSH1 0x0 DUP1 PUSH1 0x1 SLOAD DUP2 MSTORE PUSH1 0x20 ADD SWAP1 DUP2 MSTORE PUSH1 0x20 ADD PUSH1 0x0 KECCAK256 SWAP1 POP TIMESTAMP DUP2 PUSH1 0x5 ADD SLOAD LT PUSH2 0xBC1 JUMPI PUSH1 0x40 MLOAD PUSH32 0x8C379A000000000000000000000000000000000000000000000000000000000 DUP2 MSTORE PUSH1 0x4 ADD PUSH2 0xBB8 SWAP1 PUSH2 0x16E9 JUMP JUMPDEST PUSH1 0x40 MLOAD DUP1 SWAP2 SUB SWAP1 REVERT JUMPDEST DUP8 DUP2 PUSH1 0x0 ADD PUSH1 0x0 PUSH2 0x100 EXP DUP2 SLOAD DUP2 PUSH20 0xFFFFFFFFFFFFFFFFFFFFFFFFFFFFFFFFFFFFFFFF MUL NOT AND SWAP1 DUP4 PUSH20 0xFFFFFFFFFFFFFFFFFFFFFFFFFFFFFFFFFFFFFFFF AND MUL OR SWAP1 SSTORE POP DUP7 DUP2 PUSH1 0x1 ADD SWAP1 DUP2 PUSH2 0xC15 SWAP2 SWAP1 PUSH2 0x18B5 JUMP JUMPDEST POP DUP6 DUP2 PUSH1 0x2 ADD SWAP1 DUP2 PUSH2 0xC27 SWAP2 SWAP1 PUSH2 0x18B5 JUMP JUMPDEST POP PUSH8 0xDE0B6B3A7640000 DUP6 PUSH2 0xC3C SWAP2 SWAP1 PUSH2 0x148F JUMP JUMPDEST DUP2 PUSH1 0x3 ADD DUP2 SWAP1 SSTORE POP PUSH1 0x18 PUSH1 0x3C DUP1 TIMESTAMP PUSH2 0xC54 SWAP2 SWAP1 PUSH2 0x1646 JUMP JUMPDEST PUSH2 0xC5E SWAP2 SWAP1 PUSH2 0x1646 JUMP JUMPDEST PUSH2 0xC68 SWAP2 SWAP1 PUSH2 0x1646 JUMP JUMPDEST DUP2 PUSH1 0x4 ADD DUP2 SWAP1 SSTORE POP PUSH1 0x18 PUSH1 0x3C DUP1 DUP7 PUSH2 0xC80 SWAP2 SWAP1 PUSH2 0x1646 JUMP JUMPDEST PUSH2 0xC8A SWAP2 SWAP1 PUSH2 0x1646 JUMP JUMPDEST PUSH2 0xC94 SWAP2 SWAP1 PUSH2 0x1646 JUMP JUMPDEST DUP2 PUSH1 0x5 ADD DUP2 SWAP1 SSTORE POP PUSH1 0x0 DUP2 PUSH1 0x6 ADD DUP2 SWAP1 SSTORE POP DUP3 DUP2 PUSH1 0x7 ADD SWAP1 DUP2 PUSH2 0xCB7 SWAP2 SWAP1 PUSH2 0x18B5 JUMP JUMPDEST POP PUSH1 0x1 PUSH1 0x0 DUP2 SLOAD DUP1 SWAP3 SWAP2 SWAP1 PUSH2 0xCCB SWAP1 PUSH2 0x1987 JUMP JUMPDEST SWAP2 SWAP1 POP SSTORE POP PUSH1 0x1 DUP1 SLOAD PUSH2 0xCDE SWAP2 SWAP1 PUSH2 0x19CF JUMP JUMPDEST SWAP2 POP POP SWAP7 SWAP6 POP POP POP POP POP POP JUMP JUMPDEST PUSH1 0x0 PUSH1 0x40 MLOAD SWAP1 POP SWAP1 JUMP JUMPDEST PUSH1 0x0 DUP1 REVERT JUMPDEST PUSH1 0x0 DUP1 REVERT JUMPDEST PUSH1 0x0 DUP2 SWAP1 POP SWAP2 SWAP1 POP JUMP JUMPDEST PUSH2 0xD12 DUP2 PUSH2 0xCFF JUMP JUMPDEST DUP2 EQ PUSH2 0xD1D JUMPI PUSH1 0x0 DUP1 REVERT JUMPDEST POP JUMP JUMPDEST PUSH1 0x0 DUP2 CALLDATALOAD SWAP1 POP PUSH2 0xD2F DUP2 PUSH2 0xD09 JUMP JUMPDEST SWAP3 SWAP2 POP POP JUMP JUMPDEST PUSH1 0x0 PUSH1 0x20 DUP3 DUP5 SUB SLT ISZERO PUSH2 0xD4B JUMPI PUSH2 0xD4A PUSH2 0xCF5 JUMP JUMPDEST JUMPDEST PUSH1 0x0 PUSH2 0xD59 DUP5 DUP3 DUP6 ADD PUSH2 0xD20 JUMP JUMPDEST SWAP2 POP POP SWAP3 SWAP2 POP POP JUMP JUMPDEST PUSH1 0x0 PUSH20 0xFFFFFFFFFFFFFFFFFFFFFFFFFFFFFFFFFFFFFFFF DUP3 AND SWAP1 POP SWAP2 SWAP1 POP JUMP JUMPDEST PUSH1 0x0 PUSH2 0xD8D DUP3 PUSH2 0xD62 JUMP JUMPDEST SWAP1 POP SWAP2 SWAP1 POP JUMP JUMPDEST PUSH2 0xD9D DUP2 PUSH2 0xD82 JUMP JUMPDEST DUP3 MSTORE POP POP JUMP JUMPDEST PUSH1 0x0 DUP2 MLOAD SWAP1 POP SWAP2 SWAP1 POP JUMP JUMPDEST PUSH1 0x0 DUP3 DUP3 MSTORE PUSH1 0x20 DUP3 ADD SWAP1 POP SWAP3 SWAP2 POP POP JUMP JUMPDEST PUSH1 0x0 JUMPDEST DUP4 DUP2 LT ISZERO PUSH2 0xDDD JUMPI DUP1 DUP3 ADD MLOAD DUP2 DUP5 ADD MSTORE PUSH1 0x20 DUP2 ADD SWAP1 POP PUSH2 0xDC2 JUMP JUMPDEST DUP4 DUP2 GT ISZERO PUSH2 0xDEC JUMPI PUSH1 0x0 DUP5 DUP5 ADD MSTORE JUMPDEST POP POP POP POP JUMP JUMPDEST PUSH1 0x0 PUSH1 0x1F NOT PUSH1 0x1F DUP4 ADD AND SWAP1 POP SWAP2 SWAP1 POP JUMP JUMPDEST PUSH1 0x0 PUSH2 0xE0E DUP3 PUSH2 0xDA3 JUMP JUMPDEST PUSH2 0xE18 DUP2 DUP6 PUSH2 0xDAE JUMP JUMPDEST SWAP4 POP PUSH2 0xE28 DUP2 DUP6 PUSH1 0x20 DUP7 ADD PUSH2 0xDBF JUMP JUMPDEST PUSH2 0xE31 DUP2 PUSH2 0xDF2 JUMP JUMPDEST DUP5 ADD SWAP2 POP POP SWAP3 SWAP2 POP POP JUMP JUMPDEST PUSH2 0xE45 DUP2 PUSH2 0xCFF JUMP JUMPDEST DUP3 MSTORE POP POP JUMP JUMPDEST PUSH1 0x0 PUSH2 0x100 DUP3 ADD SWAP1 POP PUSH2 0xE61 PUSH1 0x0 DUP4 ADD DUP12 PUSH2 0xD94 JUMP JUMPDEST DUP2 DUP2 SUB PUSH1 0x20 DUP4 ADD MSTORE PUSH2 0xE73 DUP2 DUP11 PUSH2 0xE03 JUMP JUMPDEST SWAP1 POP DUP2 DUP2 SUB PUSH1 0x40 DUP4 ADD MSTORE PUSH2 0xE87 DUP2 DUP10 PUSH2 0xE03 JUMP JUMPDEST SWAP1 POP PUSH2 0xE96 PUSH1 0x60 DUP4 ADD DUP9 PUSH2 0xE3C JUMP JUMPDEST PUSH2 0xEA3 PUSH1 0x80 DUP4 ADD DUP8 PUSH2 0xE3C JUMP JUMPDEST PUSH2 0xEB0 PUSH1 0xA0 DUP4 ADD DUP7 PUSH2 0xE3C JUMP JUMPDEST PUSH2 0xEBD PUSH1 0xC0 DUP4 ADD DUP6 PUSH2 0xE3C JUMP JUMPDEST DUP2 DUP2 SUB PUSH1 0xE0 DUP4 ADD MSTORE PUSH2 0xECF DUP2 DUP5 PUSH2 0xE03 JUMP JUMPDEST SWAP1 POP SWAP10 SWAP9 POP POP POP POP POP POP POP POP POP JUMP JUMPDEST PUSH1 0x0 PUSH1 0x20 DUP3 ADD SWAP1 POP PUSH2 0xEF3 PUSH1 0x0 DUP4 ADD DUP5 PUSH2 0xE3C JUMP JUMPDEST SWAP3 SWAP2 POP POP JUMP JUMPDEST PUSH1 0x0 DUP1 PUSH1 0x40 DUP4 DUP6 SUB SLT ISZERO PUSH2 0xF10 JUMPI PUSH2 0xF0F PUSH2 0xCF5 JUMP JUMPDEST JUMPDEST PUSH1 0x0 PUSH2 0xF1E DUP6 DUP3 DUP7 ADD PUSH2 0xD20 JUMP JUMPDEST SWAP3 POP POP PUSH1 0x20 PUSH2 0xF2F DUP6 DUP3 DUP7 ADD PUSH2 0xD20 JUMP JUMPDEST SWAP2 POP POP SWAP3 POP SWAP3 SWAP1 POP JUMP JUMPDEST PUSH1 0x0 PUSH1 0x40 DUP3 ADD SWAP1 POP PUSH2 0xF4E PUSH1 0x0 DUP4 ADD DUP6 PUSH2 0xD94 JUMP JUMPDEST PUSH2 0xF5B PUSH1 0x20 DUP4 ADD DUP5 PUSH2 0xE3C JUMP JUMPDEST SWAP4 SWAP3 POP POP POP JUMP JUMPDEST PUSH1 0x0 PUSH2 0xF6D DUP3 PUSH2 0xD62 JUMP JUMPDEST SWAP1 POP SWAP2 SWAP1 POP JUMP JUMPDEST PUSH2 0xF7D DUP2 PUSH2 0xF62 JUMP JUMPDEST DUP2 EQ PUSH2 0xF88 JUMPI PUSH1 0x0 DUP1 REVERT JUMPDEST POP JUMP JUMPDEST PUSH1 0x0 DUP2 CALLDATALOAD SWAP1 POP PUSH2 0xF9A DUP2 PUSH2 0xF74 JUMP JUMPDEST SWAP3 SWAP2 POP POP JUMP JUMPDEST PUSH1 0x0 DUP1 PUSH1 0x0 PUSH1 0x60 DUP5 DUP7 SUB SLT ISZERO PUSH2 0xFB9 JUMPI PUSH2 0xFB8 PUSH2 0xCF5 JUMP JUMPDEST JUMPDEST PUSH1 0x0 PUSH2 0xFC7 DUP7 DUP3 DUP8 ADD PUSH2 0xD20 JUMP JUMPDEST SWAP4 POP POP PUSH1 0x20 PUSH2 0xFD8 DUP7 DUP3 DUP8 ADD PUSH2 0xF8B JUMP JUMPDEST SWAP3 POP POP PUSH1 0x40 PUSH2 0xFE9 DUP7 DUP3 DUP8 ADD PUSH2 0xD20 JUMP JUMPDEST SWAP2 POP POP SWAP3 POP SWAP3 POP SWAP3 JUMP JUMPDEST PUSH1 0x0 DUP1 PUSH1 0x40 DUP4 DUP6 SUB SLT ISZERO PUSH2 0x100A JUMPI PUSH2 0x1009 PUSH2 0xCF5 JUMP JUMPDEST JUMPDEST PUSH1 0x0 PUSH2 0x1018 DUP6 DUP3 DUP7 ADD PUSH2 0xD20 JUMP JUMPDEST SWAP3 POP POP PUSH1 0x20 PUSH2 0x1029 DUP6 DUP3 DUP7 ADD PUSH2 0xF8B JUMP JUMPDEST SWAP2 POP POP SWAP3 POP SWAP3 SWAP1 POP JUMP JUMPDEST PUSH1 0x0 PUSH1 0xE0 DUP3 ADD SWAP1 POP PUSH2 0x1048 PUSH1 0x0 DUP4 ADD DUP11 PUSH2 0xD94 JUMP JUMPDEST DUP2 DUP2 SUB PUSH1 0x20 DUP4 ADD MSTORE PUSH2 0x105A DUP2 DUP10 PUSH2 0xE03 JUMP JUMPDEST SWAP1 POP DUP2 DUP2 SUB PUSH1 0x40 DUP4 ADD MSTORE PUSH2 0x106E DUP2 DUP9 PUSH2 0xE03 JUMP JUMPDEST SWAP1 POP PUSH2 0x107D PUSH1 0x60 DUP4 ADD DUP8 PUSH2 0xE3C JUMP JUMPDEST PUSH2 0x108A PUSH1 0x80 DUP4 ADD DUP7 PUSH2 0xE3C JUMP JUMPDEST PUSH2 0x1097 PUSH1 0xA0 DUP4 ADD DUP6 PUSH2 0xE3C JUMP JUMPDEST DUP2 DUP2 SUB PUSH1 0xC0 DUP4 ADD MSTORE PUSH2 0x10A9 DUP2 DUP5 PUSH2 0xE03 JUMP JUMPDEST SWAP1 POP SWAP9 SWAP8 POP POP POP POP POP POP POP POP JUMP JUMPDEST PUSH2 0x10C0 DUP2 PUSH2 0xD82 JUMP JUMPDEST DUP2 EQ PUSH2 0x10CB JUMPI PUSH1 0x0 DUP1 REVERT JUMPDEST POP JUMP JUMPDEST PUSH1 0x0 DUP2 CALLDATALOAD SWAP1 POP PUSH2 0x10DD DUP2 PUSH2 0x10B7 JUMP JUMPDEST SWAP3 SWAP2 POP POP JUMP JUMPDEST PUSH1 0x0 DUP1 REVERT JUMPDEST PUSH1 0x0 DUP1 REVERT JUMPDEST PUSH32 0x4E487B7100000000000000000000000000000000000000000000000000000000 PUSH1 0x0 MSTORE PUSH1 0x41 PUSH1 0x4 MSTORE PUSH1 0x24 PUSH1 0x0 REVERT JUMPDEST PUSH2 0x1125 DUP3 PUSH2 0xDF2 JUMP JUMPDEST DUP2 ADD DUP2 DUP2 LT PUSH8 0xFFFFFFFFFFFFFFFF DUP3 GT OR ISZERO PUSH2 0x1144 JUMPI PUSH2 0x1143 PUSH2 0x10ED JUMP JUMPDEST JUMPDEST DUP1 PUSH1 0x40 MSTORE POP POP POP JUMP JUMPDEST PUSH1 0x0 PUSH2 0x1157 PUSH2 0xCEB JUMP JUMPDEST SWAP1 POP PUSH2 0x1163 DUP3 DUP3 PUSH2 0x111C JUMP JUMPDEST SWAP2 SWAP1 POP JUMP JUMPDEST PUSH1 0x0 PUSH8 0xFFFFFFFFFFFFFFFF DUP3 GT ISZERO PUSH2 0x1183 JUMPI PUSH2 0x1182 PUSH2 0x10ED JUMP JUMPDEST JUMPDEST PUSH2 0x118C DUP3 PUSH2 0xDF2 JUMP JUMPDEST SWAP1 POP PUSH1 0x20 DUP2 ADD SWAP1 POP SWAP2 SWAP1 POP JUMP JUMPDEST DUP3 DUP2 DUP4 CALLDATACOPY PUSH1 0x0 DUP4 DUP4 ADD MSTORE POP POP POP JUMP JUMPDEST PUSH1 0x0 PUSH2 0x11BB PUSH2 0x11B6 DUP5 PUSH2 0x1168 JUMP JUMPDEST PUSH2 0x114D JUMP JUMPDEST SWAP1 POP DUP3 DUP2 MSTORE PUSH1 0x20 DUP2 ADD DUP5 DUP5 DUP5 ADD GT ISZERO PUSH2 0x11D7 JUMPI PUSH2 0x11D6 PUSH2 0x10E8 JUMP JUMPDEST JUMPDEST PUSH2 0x11E2 DUP5 DUP3 DUP6 PUSH2 0x1199 JUMP JUMPDEST POP SWAP4 SWAP3 POP POP POP JUMP JUMPDEST PUSH1 0x0 DUP3 PUSH1 0x1F DUP4 ADD SLT PUSH2 0x11FF JUMPI PUSH2 0x11FE PUSH2 0x10E3 JUMP JUMPDEST JUMPDEST DUP2 CALLDATALOAD PUSH2 0x120F DUP5 DUP3 PUSH1 0x20 DUP7 ADD PUSH2 0x11A8 JUMP JUMPDEST SWAP2 POP POP SWAP3 SWAP2 POP POP JUMP JUMPDEST PUSH1 0x0 DUP1 PUSH1 0x0 DUP1 PUSH1 0x0 DUP1 PUSH1 0xC0 DUP8 DUP10 SUB SLT ISZERO PUSH2 0x1235 JUMPI PUSH2 0x1234 PUSH2 0xCF5 JUMP JUMPDEST JUMPDEST PUSH1 0x0 PUSH2 0x1243 DUP10 DUP3 DUP11 ADD PUSH2 0x10CE JUMP JUMPDEST SWAP7 POP POP PUSH1 0x20 DUP8 ADD CALLDATALOAD PUSH8 0xFFFFFFFFFFFFFFFF DUP2 GT ISZERO PUSH2 0x1264 JUMPI PUSH2 0x1263 PUSH2 0xCFA JUMP JUMPDEST JUMPDEST PUSH2 0x1270 DUP10 DUP3 DUP11 ADD PUSH2 0x11EA JUMP JUMPDEST SWAP6 POP POP PUSH1 0x40 DUP8 ADD CALLDATALOAD PUSH8 0xFFFFFFFFFFFFFFFF DUP2 GT ISZERO PUSH2 0x1291 JUMPI PUSH2 0x1290 PUSH2 0xCFA JUMP JUMPDEST JUMPDEST PUSH2 0x129D DUP10 DUP3 DUP11 ADD PUSH2 0x11EA JUMP JUMPDEST SWAP5 POP POP PUSH1 0x60 PUSH2 0x12AE DUP10 DUP3 DUP11 ADD PUSH2 0xD20 JUMP JUMPDEST SWAP4 POP POP PUSH1 0x80 PUSH2 0x12BF DUP10 DUP3 DUP11 ADD PUSH2 0xD20 JUMP JUMPDEST SWAP3 POP POP PUSH1 0xA0 DUP8 ADD CALLDATALOAD PUSH8 0xFFFFFFFFFFFFFFFF DUP2 GT ISZERO PUSH2 0x12E0 JUMPI PUSH2 0x12DF PUSH2 0xCFA JUMP JUMPDEST JUMPDEST PUSH2 0x12EC DUP10 DUP3 DUP11 ADD PUSH2 0x11EA JUMP JUMPDEST SWAP2 POP POP SWAP3 SWAP6 POP SWAP3 SWAP6 POP SWAP3 SWAP6 JUMP JUMPDEST PUSH32 0x4E487B7100000000000000000000000000000000000000000000000000000000 PUSH1 0x0 MSTORE PUSH1 0x22 PUSH1 0x4 MSTORE PUSH1 0x24 PUSH1 0x0 REVERT JUMPDEST PUSH1 0x0 PUSH1 0x2 DUP3 DIV SWAP1 POP PUSH1 0x1 DUP3 AND DUP1 PUSH2 0x1340 JUMPI PUSH1 0x7F DUP3 AND SWAP2 POP JUMPDEST PUSH1 0x20 DUP3 LT DUP2 SUB PUSH2 0x1353 JUMPI PUSH2 0x1352 PUSH2 0x12F9 JUMP JUMPDEST JUMPDEST POP SWAP2 SWAP1 POP JUMP JUMPDEST PUSH32 0x4E6F20646F6E6174696F6E2068617665206265656E206D616465000000000000 PUSH1 0x0 DUP3 ADD MSTORE POP JUMP JUMPDEST PUSH1 0x0 PUSH2 0x138F PUSH1 0x1A DUP4 PUSH2 0xDAE JUMP JUMPDEST SWAP2 POP PUSH2 0x139A DUP3 PUSH2 0x1359 JUMP JUMPDEST PUSH1 0x20 DUP3 ADD SWAP1 POP SWAP2 SWAP1 POP JUMP JUMPDEST PUSH1 0x0 PUSH1 0x20 DUP3 ADD SWAP1 POP DUP2 DUP2 SUB PUSH1 0x0 DUP4 ADD MSTORE PUSH2 0x13BE DUP2 PUSH2 0x1382 JUMP JUMPDEST SWAP1 POP SWAP2 SWAP1 POP JUMP JUMPDEST PUSH32 0x4E487B7100000000000000000000000000000000000000000000000000000000 PUSH1 0x0 MSTORE PUSH1 0x32 PUSH1 0x4 MSTORE PUSH1 0x24 PUSH1 0x0 REVERT JUMPDEST PUSH32 0x54686520646561646C696E652068617320657863656564656400000000000000 PUSH1 0x0 DUP3 ADD MSTORE POP JUMP JUMPDEST PUSH1 0x0 PUSH2 0x142A PUSH1 0x19 DUP4 PUSH2 0xDAE JUMP JUMPDEST SWAP2 POP PUSH2 0x1435 DUP3 PUSH2 0x13F4 JUMP JUMPDEST PUSH1 0x20 DUP3 ADD SWAP1 POP SWAP2 SWAP1 POP JUMP JUMPDEST PUSH1 0x0 PUSH1 0x20 DUP3 ADD SWAP1 POP DUP2 DUP2 SUB PUSH1 0x0 DUP4 ADD MSTORE PUSH2 0x1459 DUP2 PUSH2 0x141D JUMP JUMPDEST SWAP1 POP SWAP2 SWAP1 POP JUMP JUMPDEST PUSH32 0x4E487B7100000000000000000000000000000000000000000000000000000000 PUSH1 0x0 MSTORE PUSH1 0x11 PUSH1 0x4 MSTORE PUSH1 0x24 PUSH1 0x0 REVERT JUMPDEST PUSH1 0x0 PUSH2 0x149A DUP3 PUSH2 0xCFF JUMP JUMPDEST SWAP2 POP PUSH2 0x14A5 DUP4 PUSH2 0xCFF JUMP JUMPDEST SWAP3 POP DUP2 PUSH32 0xFFFFFFFFFFFFFFFFFFFFFFFFFFFFFFFFFFFFFFFFFFFFFFFFFFFFFFFFFFFFFFFF DIV DUP4 GT DUP3 ISZERO ISZERO AND ISZERO PUSH2 0x14DE JUMPI PUSH2 0x14DD PUSH2 0x1460 JUMP JUMPDEST JUMPDEST DUP3 DUP3 MUL SWAP1 POP SWAP3 SWAP2 POP POP JUMP JUMPDEST PUSH1 0x0 DUP2 SWAP1 POP SWAP3 SWAP2 POP POP JUMP JUMPDEST POP JUMP JUMPDEST PUSH1 0x0 PUSH2 0x1504 PUSH1 0x0 DUP4 PUSH2 0x14E9 JUMP JUMPDEST SWAP2 POP PUSH2 0x150F DUP3 PUSH2 0x14F4 JUMP JUMPDEST PUSH1 0x0 DUP3 ADD SWAP1 POP SWAP2 SWAP1 POP JUMP JUMPDEST PUSH1 0x0 PUSH2 0x1525 DUP3 PUSH2 0x14F7 JUMP JUMPDEST SWAP2 POP DUP2 SWAP1 POP SWAP2 SWAP1 POP JUMP JUMPDEST PUSH1 0x0 PUSH2 0x153A DUP3 PUSH2 0xCFF JUMP JUMPDEST SWAP2 POP PUSH2 0x1545 DUP4 PUSH2 0xCFF JUMP JUMPDEST SWAP3 POP DUP3 PUSH32 0xFFFFFFFFFFFFFFFFFFFFFFFFFFFFFFFFFFFFFFFFFFFFFFFFFFFFFFFFFFFFFFFF SUB DUP3 GT ISZERO PUSH2 0x157A JUMPI PUSH2 0x1579 PUSH2 0x1460 JUMP JUMPDEST JUMPDEST DUP3 DUP3 ADD SWAP1 POP SWAP3 SWAP2 POP POP JUMP JUMPDEST PUSH32 0x536F7272792C206F6E6C7920746865206F776E6572206F66207468652070726F PUSH1 0x0 DUP3 ADD MSTORE PUSH32 0x6A6563742063616E207769746864726177207468652066756E64732E00000000 PUSH1 0x20 DUP3 ADD MSTORE POP JUMP JUMPDEST PUSH1 0x0 PUSH2 0x15E1 PUSH1 0x3C DUP4 PUSH2 0xDAE JUMP JUMPDEST SWAP2 POP PUSH2 0x15EC DUP3 PUSH2 0x1585 JUMP JUMPDEST PUSH1 0x40 DUP3 ADD SWAP1 POP SWAP2 SWAP1 POP JUMP JUMPDEST PUSH1 0x0 PUSH1 0x20 DUP3 ADD SWAP1 POP DUP2 DUP2 SUB PUSH1 0x0 DUP4 ADD MSTORE PUSH2 0x1610 DUP2 PUSH2 0x15D4 JUMP JUMPDEST SWAP1 POP SWAP2 SWAP1 POP JUMP JUMPDEST PUSH32 0x4E487B7100000000000000000000000000000000000000000000000000000000 PUSH1 0x0 MSTORE PUSH1 0x12 PUSH1 0x4 MSTORE PUSH1 0x24 PUSH1 0x0 REVERT JUMPDEST PUSH1 0x0 PUSH2 0x1651 DUP3 PUSH2 0xCFF JUMP JUMPDEST SWAP2 POP PUSH2 0x165C DUP4 PUSH2 0xCFF JUMP JUMPDEST SWAP3 POP DUP3 PUSH2 0x166C JUMPI PUSH2 0x166B PUSH2 0x1617 JUMP JUMPDEST JUMPDEST DUP3 DUP3 DIV SWAP1 POP SWAP3 SWAP2 POP POP JUMP JUMPDEST PUSH32 0x54686520646561646C696E652073686F756C64206265206F7468657220746861 PUSH1 0x0 DUP3 ADD MSTORE PUSH32 0x6E20746F64617900000000000000000000000000000000000000000000000000 PUSH1 0x20 DUP3 ADD MSTORE POP JUMP JUMPDEST PUSH1 0x0 PUSH2 0x16D3 PUSH1 0x27 DUP4 PUSH2 0xDAE JUMP JUMPDEST SWAP2 POP PUSH2 0x16DE DUP3 PUSH2 0x1677 JUMP JUMPDEST PUSH1 0x40 DUP3 ADD SWAP1 POP SWAP2 SWAP1 POP JUMP JUMPDEST PUSH1 0x0 PUSH1 0x20 DUP3 ADD SWAP1 POP DUP2 DUP2 SUB PUSH1 0x0 DUP4 ADD MSTORE PUSH2 0x1702 DUP2 PUSH2 0x16C6 JUMP JUMPDEST SWAP1 POP SWAP2 SWAP1 POP JUMP JUMPDEST PUSH1 0x0 DUP2 SWAP1 POP DUP2 PUSH1 0x0 MSTORE PUSH1 0x20 PUSH1 0x0 KECCAK256 SWAP1 POP SWAP2 SWAP1 POP JUMP JUMPDEST PUSH1 0x0 PUSH1 0x20 PUSH1 0x1F DUP4 ADD DIV SWAP1 POP SWAP2 SWAP1 POP JUMP JUMPDEST PUSH1 0x0 DUP3 DUP3 SHL SWAP1 POP SWAP3 SWAP2 POP POP JUMP JUMPDEST PUSH1 0x0 PUSH1 0x8 DUP4 MUL PUSH2 0x176B PUSH32 0xFFFFFFFFFFFFFFFFFFFFFFFFFFFFFFFFFFFFFFFFFFFFFFFFFFFFFFFFFFFFFFFF DUP3 PUSH2 0x172E JUMP JUMPDEST PUSH2 0x1775 DUP7 DUP4 PUSH2 0x172E JUMP JUMPDEST SWAP6 POP DUP1 NOT DUP5 AND SWAP4 POP DUP1 DUP7 AND DUP5 OR SWAP3 POP POP POP SWAP4 SWAP3 POP POP POP JUMP JUMPDEST PUSH1 0x0 DUP2 SWAP1 POP SWAP2 SWAP1 POP JUMP JUMPDEST PUSH1 0x0 PUSH2 0x17B2 PUSH2 0x17AD PUSH2 0x17A8 DUP5 PUSH2 0xCFF JUMP JUMPDEST PUSH2 0x178D JUMP JUMPDEST PUSH2 0xCFF JUMP JUMPDEST SWAP1 POP SWAP2 SWAP1 POP JUMP JUMPDEST PUSH1 0x0 DUP2 SWAP1 POP SWAP2 SWAP1 POP JUMP JUMPDEST PUSH2 0x17CC DUP4 PUSH2 0x1797 JUMP JUMPDEST PUSH2 0x17E0 PUSH2 0x17D8 DUP3 PUSH2 0x17B9 JUMP JUMPDEST DUP5 DUP5 SLOAD PUSH2 0x173B JUMP JUMPDEST DUP3 SSTORE POP POP POP POP JUMP JUMPDEST PUSH1 0x0 SWAP1 JUMP JUMPDEST PUSH2 0x17F5 PUSH2 0x17E8 JUMP JUMPDEST PUSH2 0x1800 DUP2 DUP5 DUP5 PUSH2 0x17C3 JUMP JUMPDEST POP POP POP JUMP JUMPDEST JUMPDEST DUP2 DUP2 LT ISZERO PUSH2 0x1824 JUMPI PUSH2 0x1819 PUSH1 0x0 DUP3 PUSH2 0x17ED JUMP JUMPDEST PUSH1 0x1 DUP2 ADD SWAP1 POP PUSH2 0x1806 JUMP JUMPDEST POP POP JUMP JUMPDEST PUSH1 0x1F DUP3 GT ISZERO PUSH2 0x1869 JUMPI PUSH2 0x183A DUP2 PUSH2 0x1709 JUMP JUMPDEST PUSH2 0x1843 DUP5 PUSH2 0x171E JUMP JUMPDEST DUP2 ADD PUSH1 0x20 DUP6 LT ISZERO PUSH2 0x1852 JUMPI DUP2 SWAP1 POP JUMPDEST PUSH2 0x1866 PUSH2 0x185E DUP6 PUSH2 0x171E JUMP JUMPDEST DUP4 ADD DUP3 PUSH2 0x1805 JUMP JUMPDEST POP POP JUMPDEST POP POP POP JUMP JUMPDEST PUSH1 0x0 DUP3 DUP3 SHR SWAP1 POP SWAP3 SWAP2 POP POP JUMP JUMPDEST PUSH1 0x0 PUSH2 0x188C PUSH1 0x0 NOT DUP5 PUSH1 0x8 MUL PUSH2 0x186E JUMP JUMPDEST NOT DUP1 DUP4 AND SWAP2 POP POP SWAP3 SWAP2 POP POP JUMP JUMPDEST PUSH1 0x0 PUSH2 0x18A5 DUP4 DUP4 PUSH2 0x187B JUMP JUMPDEST SWAP2 POP DUP3 PUSH1 0x2 MUL DUP3 OR SWAP1 POP SWAP3 SWAP2 POP POP JUMP JUMPDEST PUSH2 0x18BE DUP3 PUSH2 0xDA3 JUMP JUMPDEST PUSH8 0xFFFFFFFFFFFFFFFF DUP2 GT ISZERO PUSH2 0x18D7 JUMPI PUSH2 0x18D6 PUSH2 0x10ED JUMP JUMPDEST JUMPDEST PUSH2 0x18E1 DUP3 SLOAD PUSH2 0x1328 JUMP JUMPDEST PUSH2 0x18EC DUP3 DUP3 DUP6 PUSH2 0x1828 JUMP JUMPDEST PUSH1 0x0 PUSH1 0x20 SWAP1 POP PUSH1 0x1F DUP4 GT PUSH1 0x1 DUP2 EQ PUSH2 0x191F JUMPI PUSH1 0x0 DUP5 ISZERO PUSH2 0x190D JUMPI DUP3 DUP8 ADD MLOAD SWAP1 POP JUMPDEST PUSH2 0x1917 DUP6 DUP3 PUSH2 0x1899 JUMP JUMPDEST DUP7 SSTORE POP PUSH2 0x197F JUMP JUMPDEST PUSH1 0x1F NOT DUP5 AND PUSH2 0x192D DUP7 PUSH2 0x1709 JUMP JUMPDEST PUSH1 0x0 JUMPDEST DUP3 DUP2 LT ISZERO PUSH2 0x1955 JUMPI DUP5 DUP10 ADD MLOAD DUP3 SSTORE PUSH1 0x1 DUP3 ADD SWAP2 POP PUSH1 0x20 DUP6 ADD SWAP5 POP PUSH1 0x20 DUP2 ADD SWAP1 POP PUSH2 0x1930 JUMP JUMPDEST DUP7 DUP4 LT ISZERO PUSH2 0x1972 JUMPI DUP5 DUP10 ADD MLOAD PUSH2 0x196E PUSH1 0x1F DUP10 AND DUP3 PUSH2 0x187B JUMP JUMPDEST DUP4 SSTORE POP JUMPDEST PUSH1 0x1 PUSH1 0x2 DUP9 MUL ADD DUP9 SSTORE POP POP POP JUMPDEST POP POP POP POP POP POP JUMP JUMPDEST PUSH1 0x0 PUSH2 0x1992 DUP3 PUSH2 0xCFF JUMP JUMPDEST SWAP2 POP PUSH32 0xFFFFFFFFFFFFFFFFFFFFFFFFFFFFFFFFFFFFFFFFFFFFFFFFFFFFFFFFFFFFFFFF DUP3 SUB PUSH2 0x19C4 JUMPI PUSH2 0x19C3 PUSH2 0x1460 JUMP JUMPDEST JUMPDEST PUSH1 0x1 DUP3 ADD SWAP1 POP SWAP2 SWAP1 POP JUMP JUMPDEST PUSH1 0x0 PUSH2 0x19DA DUP3 PUSH2 0xCFF JUMP JUMPDEST SWAP2 POP PUSH2 0x19E5 DUP4 PUSH2 0xCFF JUMP JUMPDEST SWAP3 POP DUP3 DUP3 LT ISZERO PUSH2 0x19F8 JUMPI PUSH2 0x19F7 PUSH2 0x1460 JUMP JUMPDEST JUMPDEST DUP3 DUP3 SUB SWAP1 POP SWAP3 SWAP2 POP POP JUMP INVALID LOG2 PUSH5 0x6970667358 0x22 SLT KECCAK256 0xAC 0xE1 0xC6 PUSH12 0x91EB95D9E56EA3A20CE46490 0xAD 0xE9 0xEF 0xC2 0xB2 DIV DUP2 LOG1 DIFFICULTY SWAP13 EXP 0x5D 0xEE 0xC ADDRESS 0xCC PUSH5 0x736F6C6343 STOP ADDMOD 0xF STOP CALLER "},"methodIdentifiers":{"createProject(address,string,string,uint256,uint256,string)":"f64bc508","donateOnProject(uint256,address,uint256)":"767ece37","getDonators(uint256,uint256)":"2b694e20","getNumProjects()":"16ff5b87","getProject(uint256)":"f0f3f2c8","numOfDonators(uint256)":"20b39878","numProjects()":"5a067baa","projects(uint256)":"107046bd","withdrawFunding(uint256,address)":"ad6836ce"}}}}}