{
  "_format": "hh-sol-artifact-1",
  "contractName": "CrowdFundingFinal",
  "sourceName": "contracts/CrowdFundingFinal.sol",
  "abi": [
    {
      "stateMutability": "payable",
      "type": "fallback"
    },
    {
      "inputs": [
        {
          "internalType": "address",
          "name": "_owner",
          "type": "address"
        },
        {
          "internalType": "string",
          "name": "_pName",
          "type": "string"
        },
        {
          "internalType": "string",
          "name": "_pdescription",
          "type": "string"
        },
        {
          "internalType": "uint256",
          "name": "_target",
          "type": "uint256"
        },
        {
          "internalType": "uint256",
          "name": "_deadline",
          "type": "uint256"
        },
        {
          "internalType": "string",
          "name": "_image",
          "type": "string"
        }
      ],
      "name": "createProject",
      "outputs": [
        {
          "internalType": "uint256",
          "name": "",
          "type": "uint256"
        }
      ],
      "stateMutability": "nonpayable",
      "type": "function"
    },
    {
      "inputs": [
        {
          "internalType": "uint256",
          "name": "_projectIndex",
          "type": "uint256"
        },
        {
          "internalType": "address payable",
          "name": "_donator",
          "type": "address"
        },
        {
          "internalType": "uint256",
          "name": "_amount",
          "type": "uint256"
        }
      ],
      "name": "donateOnProject",
      "outputs": [],
      "stateMutability": "payable",
      "type": "function"
    },
    {
      "inputs": [
        {
          "internalType": "uint256",
          "name": "id",
          "type": "uint256"
        },
        {
          "internalType": "uint256",
          "name": "donatorNum",
          "type": "uint256"
        }
      ],
      "name": "getDonators",
      "outputs": [
        {
          "internalType": "address",
          "name": "",
          "type": "address"
        },
        {
          "internalType": "uint256",
          "name": "",
          "type": "uint256"
        }
      ],
      "stateMutability": "view",
      "type": "function"
    },
    {
      "inputs": [],
      "name": "getNumProjects",
      "outputs": [
        {
          "internalType": "uint256",
          "name": "",
          "type": "uint256"
        }
      ],
      "stateMutability": "view",
      "type": "function"
    },
    {
      "inputs": [
        {
          "internalType": "uint256",
          "name": "id",
          "type": "uint256"
        }
      ],
      "name": "getProject",
      "outputs": [
        {
          "internalType": "address",
          "name": "",
          "type": "address"
        },
        {
          "internalType": "string",
          "name": "",
          "type": "string"
        },
        {
          "internalType": "string",
          "name": "",
          "type": "string"
        },
        {
          "internalType": "uint256",
          "name": "",
          "type": "uint256"
        },
        {
          "internalType": "uint256",
          "name": "",
          "type": "uint256"
        },
        {
          "internalType": "uint256",
          "name": "",
          "type": "uint256"
        },
        {
          "internalType": "string",
          "name": "",
          "type": "string"
        }
      ],
      "stateMutability": "view",
      "type": "function"
    },
    {
      "inputs": [
        {
          "internalType": "uint256",
          "name": "id",
          "type": "uint256"
        }
      ],
      "name": "numOfDonators",
      "outputs": [
        {
          "internalType": "uint256",
          "name": "",
          "type": "uint256"
        }
      ],
      "stateMutability": "view",
      "type": "function"
    },
    {
      "inputs": [],
      "name": "numProjects",
      "outputs": [
        {
          "internalType": "uint256",
          "name": "",
          "type": "uint256"
        }
      ],
      "stateMutability": "view",
      "type": "function"
    },
    {
      "inputs": [
        {
          "internalType": "uint256",
          "name": "",
          "type": "uint256"
        }
      ],
      "name": "projects",
      "outputs": [
        {
          "internalType": "address",
          "name": "owner",
          "type": "address"
        },
        {
          "internalType": "string",
          "name": "pName",
          "type": "string"
        },
        {
          "internalType": "string",
          "name": "pdescription",
          "type": "string"
        },
        {
          "internalType": "uint256",
          "name": "target",
          "type": "uint256"
        },
        {
          "internalType": "uint256",
          "name": "timeCreated",
          "type": "uint256"
        },
        {
          "internalType": "uint256",
          "name": "deadline",
          "type": "uint256"
        },
        {
          "internalType": "uint256",
          "name": "amountCollected",
          "type": "uint256"
        },
        {
          "internalType": "string",
          "name": "image",
          "type": "string"
        }
      ],
      "stateMutability": "view",
      "type": "function"
    },
    {
      "inputs": [
        {
          "internalType": "uint256",
          "name": "_projectIndex",
          "type": "uint256"
        },
        {
          "internalType": "address payable",
          "name": "_pOwner",
          "type": "address"
        }
      ],
      "name": "withdrawFunding",
      "outputs": [],
      "stateMutability": "nonpayable",
      "type": "function"
    },
    {
      "stateMutability": "payable",
      "type": "receive"
    }
  ],
  "bytecode": "0x6080604052600060015534801561001557600080fd5b50611a39806100256000396000f3fe60806040526004361061008a5760003560e01c80635a067baa116100595780635a067baa1461017d578063767ece37146101a8578063ad6836ce146101c4578063f0f3f2c8146101ed578063f64bc5081461023057610091565b8063107046bd1461009357806316ff5b87146100d757806320b39878146101025780632b694e201461013f57610091565b3661009157005b005b34801561009f57600080fd5b506100ba60048036038101906100b59190610d35565b61026d565b6040516100ce989796959493929190610e4b565b60405180910390f35b3480156100e357600080fd5b506100ec61046d565b6040516100f99190610ede565b60405180910390f35b34801561010e57600080fd5b5061012960048036038101906101249190610d35565b610477565b6040516101369190610ede565b60405180910390f35b34801561014b57600080fd5b5061016660048036038101906101619190610ef9565b610499565b604051610174929190610f39565b60405180910390f35b34801561018957600080fd5b50610192610586565b60405161019f9190610ede565b60405180910390f35b6101c260048036038101906101bd9190610fa0565b61058c565b005b3480156101d057600080fd5b506101eb60048036038101906101e69190610ff3565b610769565b005b3480156101f957600080fd5b50610214600480360381019061020f9190610d35565b6108cf565b6040516102279796959493929190611033565b60405180910390f35b34801561023c57600080fd5b5061025760048036038101906102529190611218565b610b62565b6040516102649190610ede565b60405180910390f35b60006020528060005260406000206000915090508060000160009054906101000a900473ffffffffffffffffffffffffffffffffffffffff16908060010180546102b690611328565b80601f01602080910402602001604051908101604052809291908181526020018280546102e290611328565b801561032f5780601f106103045761010080835404028352916020019161032f565b820191906000526020600020905b81548152906001019060200180831161031257829003601f168201915b50505050509080600201805461034490611328565b80601f016020809104026020016040519081016040528092919081815260200182805461037090611328565b80156103bd5780601f10610392576101008083540402835291602001916103bd565b820191906000526020600020905b8154815290600101906020018083116103a057829003601f168201915b5050505050908060030154908060040154908060050154908060060154908060070180546103ea90611328565b80601f016020809104026020016040519081016040528092919081815260200182805461041690611328565b80156104635780601f1061043857610100808354040283529160200191610463565b820191906000526020600020905b81548152906001019060200180831161044657829003601f168201915b5050505050905088565b6000600154905090565b6000806000838152602001908152602001600020600901805490509050919050565b600080600080600086815260200190815260200160002060090180549050116104f7576040517f08c379a00000000000000000000000000000000000000000000000000000000081526004016104ee906113a5565b60405180910390fd5b600080858152602001908152602001600020600801838154811061051e5761051d6113c5565b5b9060005260206000200160009054906101000a900473ffffffffffffffffffffffffffffffffffffffff1660008086815260200190815260200160002060090184815481106105705761056f6113c5565b5b9060005260206000200154915091509250929050565b60015481565b826000808281526020019081526020016000206003015460008083815260200190815260200160002060060154106105f9576040517f08c379a00000000000000000000000000000000000000000000000000000000081526004016105f090611440565b60405180910390fd5b6000806000868152602001908152602001600020905080600801849080600181540180825580915050600190039060005260206000200160009091909190916101000a81548173ffffffffffffffffffffffffffffffffffffffff021916908373ffffffffffffffffffffffffffffffffffffffff1602179055508060090183908060018154018082558091505060019003906000526020600020016000909190919091505560008160000160009054906101000a900473ffffffffffffffffffffffffffffffffffffffff1673ffffffffffffffffffffffffffffffffffffffff16670de0b6b3a7640000856106f0919061148f565b6040516106fc9061151a565b60006040518083038185875af1925050503d8060008114610739576040519150601f19603f3d011682016040523d82523d6000602084013e61073e565b606091505b50509050801561076157838260060154610758919061152f565b82600601819055505b505050505050565b8181600080600084815260200190815260200160002090508173ffffffffffffffffffffffffffffffffffffffff1660008085815260200190815260200160002060000160009054906101000a900473ffffffffffffffffffffffffffffffffffffffff1673ffffffffffffffffffffffffffffffffffffffff1614610824576040517f08c379a000000000000000000000000000000000000000000000000000000000815260040161081b906115f7565b60405180910390fd5b60008473ffffffffffffffffffffffffffffffffffffffff166000808881526020019081526020016000206006015460405161085f9061151a565b60006040518083038185875af1925050503d806000811461089c576040519150601f19603f3d011682016040523d82523d6000602084013e6108a1565b606091505b5050905080156108c7576000806000888152602001908152602001600020600601819055505b505050505050565b60006060806000806000606060008089815260200190815260200160002060000160009054906101000a900473ffffffffffffffffffffffffffffffffffffffff166000808a81526020019081526020016000206001016000808b81526020019081526020016000206002016000808c8152602001908152602001600020600301546000808d815260200190815260200160002060050154670de0b6b3a76400006000808f8152602001908152602001600020600601546109909190611646565b6000808f81526020019081526020016000206007018580546109b190611328565b80601f01602080910402602001604051908101604052809291908181526020018280546109dd90611328565b8015610a2a5780601f106109ff57610100808354040283529160200191610a2a565b820191906000526020600020905b815481529060010190602001808311610a0d57829003601f168201915b50505050509550848054610a3d90611328565b80601f0160208091040260200160405190810160405280929190818152602001828054610a6990611328565b8015610ab65780601f10610a8b57610100808354040283529160200191610ab6565b820191906000526020600020905b815481529060010190602001808311610a9957829003601f168201915b50505050509450808054610ac990611328565b80601f0160208091040260200160405190810160405280929190818152602001828054610af590611328565b8015610b425780601f10610b1757610100808354040283529160200191610b42565b820191906000526020600020905b815481529060010190602001808311610b2557829003601f168201915b505050505090509650965096509650965096509650919395979092949650565b6000806000806001548152602001908152602001600020905042816005015410610bc1576040517f08c379a0000000000000000000000000000000000000000000000000000000008152600401610bb8906116e9565b60405180910390fd5b878160000160006101000a81548173ffffffffffffffffffffffffffffffffffffffff021916908373ffffffffffffffffffffffffffffffffffffffff16021790555086816001019081610c1591906118b5565b5085816002019081610c2791906118b5565b50670de0b6b3a764000085610c3c919061148f565b81600301819055506018603c8042610c549190611646565b610c5e9190611646565b610c689190611646565b81600401819055506018603c8086610c809190611646565b610c8a9190611646565b610c949190611646565b81600501819055506000816006018190555082816007019081610cb791906118b5565b5060016000815480929190610ccb90611987565b919050555060018054610cde91906119cf565b9150509695505050505050565b6000604051905090565b600080fd5b600080fd5b6000819050919050565b610d1281610cff565b8114610d1d57600080fd5b50565b600081359050610d2f81610d09565b92915050565b600060208284031215610d4b57610d4a610cf5565b5b6000610d5984828501610d20565b91505092915050565b600073ffffffffffffffffffffffffffffffffffffffff82169050919050565b6000610d8d82610d62565b9050919050565b610d9d81610d82565b82525050565b600081519050919050565b600082825260208201905092915050565b60005b83811015610ddd578082015181840152602081019050610dc2565b83811115610dec576000848401525b50505050565b6000601f19601f8301169050919050565b6000610e0e82610da3565b610e188185610dae565b9350610e28818560208601610dbf565b610e3181610df2565b840191505092915050565b610e4581610cff565b82525050565b600061010082019050610e61600083018b610d94565b8181036020830152610e73818a610e03565b90508181036040830152610e878189610e03565b9050610e966060830188610e3c565b610ea36080830187610e3c565b610eb060a0830186610e3c565b610ebd60c0830185610e3c565b81810360e0830152610ecf8184610e03565b90509998505050505050505050565b6000602082019050610ef36000830184610e3c565b92915050565b60008060408385031215610f1057610f0f610cf5565b5b6000610f1e85828601610d20565b9250506020610f2f85828601610d20565b9150509250929050565b6000604082019050610f4e6000830185610d94565b610f5b6020830184610e3c565b9392505050565b6000610f6d82610d62565b9050919050565b610f7d81610f62565b8114610f8857600080fd5b50565b600081359050610f9a81610f74565b92915050565b600080600060608486031215610fb957610fb8610cf5565b5b6000610fc786828701610d20565b9350506020610fd886828701610f8b565b9250506040610fe986828701610d20565b9150509250925092565b6000806040838503121561100a57611009610cf5565b5b600061101885828601610d20565b925050602061102985828601610f8b565b9150509250929050565b600060e082019050611048600083018a610d94565b818103602083015261105a8189610e03565b9050818103604083015261106e8188610e03565b905061107d6060830187610e3c565b61108a6080830186610e3c565b61109760a0830185610e3c565b81810360c08301526110a98184610e03565b905098975050505050505050565b6110c081610d82565b81146110cb57600080fd5b50565b6000813590506110dd816110b7565b92915050565b600080fd5b600080fd5b7f4e487b7100000000000000000000000000000000000000000000000000000000600052604160045260246000fd5b61112582610df2565b810181811067ffffffffffffffff82111715611144576111436110ed565b5b80604052505050565b6000611157610ceb565b9050611163828261111c565b919050565b600067ffffffffffffffff821115611183576111826110ed565b5b61118c82610df2565b9050602081019050919050565b82818337600083830152505050565b60006111bb6111b684611168565b61114d565b9050828152602081018484840111156111d7576111d66110e8565b5b6111e2848285611199565b509392505050565b600082601f8301126111ff576111fe6110e3565b5b813561120f8482602086016111a8565b91505092915050565b60008060008060008060c0878903121561123557611234610cf5565b5b600061124389828a016110ce565b965050602087013567ffffffffffffffff81111561126457611263610cfa565b5b61127089828a016111ea565b955050604087013567ffffffffffffffff81111561129157611290610cfa565b5b61129d89828a016111ea565b94505060606112ae89828a01610d20565b93505060806112bf89828a01610d20565b92505060a087013567ffffffffffffffff8111156112e0576112df610cfa565b5b6112ec89828a016111ea565b9150509295509295509295565b7f4e487b7100000000000000000000000000000000000000000000000000000000600052602260045260246000fd5b6000600282049050600182168061134057607f821691505b602082108103611353576113526112f9565b5b50919050565b7f4e6f20646f6e6174696f6e2068617665206265656e206d616465000000000000600082015250565b600061138f601a83610dae565b915061139a82611359565b602082019050919050565b600060208201905081810360008301526113be81611382565b9050919050565b7f4e487b7100000000000000000000000000000000000000000000000000000000600052603260045260246000fd5b7f54686520646561646c696e652068617320657863656564656400000000000000600082015250565b600061142a601983610dae565b9150611435826113f4565b602082019050919050565b600060208201905081810360008301526114598161141d565b9050919050565b7f4e487b7100000000000000000000000000000000000000000000000000000000600052601160045260246000fd5b600061149a82610cff565b91506114a583610cff565b9250817fffffffffffffffffffffffffffffffffffffffffffffffffffffffffffffffff04831182151516156114de576114dd611460565b5b828202905092915050565b600081905092915050565b50565b60006115046000836114e9565b915061150f826114f4565b600082019050919050565b6000611525826114f7565b9150819050919050565b600061153a82610cff565b915061154583610cff565b9250827fffffffffffffffffffffffffffffffffffffffffffffffffffffffffffffffff0382111561157a57611579611460565b5b828201905092915050565b7f536f7272792c206f6e6c7920746865206f776e6572206f66207468652070726f60008201527f6a6563742063616e207769746864726177207468652066756e64732e00000000602082015250565b60006115e1603c83610dae565b91506115ec82611585565b604082019050919050565b60006020820190508181036000830152611610816115d4565b9050919050565b7f4e487b7100000000000000000000000000000000000000000000000000000000600052601260045260246000fd5b600061165182610cff565b915061165c83610cff565b92508261166c5761166b611617565b5b828204905092915050565b7f54686520646561646c696e652073686f756c64206265206f746865722074686160008201527f6e20746f64617900000000000000000000000000000000000000000000000000602082015250565b60006116d3602783610dae565b91506116de82611677565b604082019050919050565b60006020820190508181036000830152611702816116c6565b9050919050565b60008190508160005260206000209050919050565b60006020601f8301049050919050565b600082821b905092915050565b60006008830261176b7fffffffffffffffffffffffffffffffffffffffffffffffffffffffffffffffff8261172e565b611775868361172e565b95508019841693508086168417925050509392505050565b6000819050919050565b60006117b26117ad6117a884610cff565b61178d565b610cff565b9050919050565b6000819050919050565b6117cc83611797565b6117e06117d8826117b9565b84845461173b565b825550505050565b600090565b6117f56117e8565b6118008184846117c3565b505050565b5b81811015611824576118196000826117ed565b600181019050611806565b5050565b601f8211156118695761183a81611709565b6118438461171e565b81016020851015611852578190505b61186661185e8561171e565b830182611805565b50505b505050565b600082821c905092915050565b600061188c6000198460080261186e565b1980831691505092915050565b60006118a5838361187b565b9150826002028217905092915050565b6118be82610da3565b67ffffffffffffffff8111156118d7576118d66110ed565b5b6118e18254611328565b6118ec828285611828565b600060209050601f83116001811461191f576000841561190d578287015190505b6119178582611899565b86555061197f565b601f19841661192d86611709565b60005b8281101561195557848901518255600182019150602085019450602081019050611930565b86831015611972578489015161196e601f89168261187b565b8355505b6001600288020188555050505b505050505050565b600061199282610cff565b91507fffffffffffffffffffffffffffffffffffffffffffffffffffffffffffffffff82036119c4576119c3611460565b5b600182019050919050565b60006119da82610cff565b91506119e583610cff565b9250828210156119f8576119f7611460565b5b82820390509291505056fea2646970667358221220ace1c66b91eb95d9e56ea3a20ce46490ade9efc2b20481a1449c0a5dee0c30cc64736f6c634300080f0033",
  "linkReferences": {},
  "deployedLinkReferences": {}
}