{
  "_format": "hh-sol-artifact-1",
  "contractName": "CrowdFundingFinal",
  "sourceName": "contracts/CrowdFundingFinal.sol",
  "abi": [
    {
      "inputs": [
        {
          "internalType": "address",
          "name": "_owner",
          "type": "address"
        },
        {
          "internalType": "string",
          "name": "_pName",
          "type": "string"
        },
        {
          "internalType": "string",
          "name": "_pdescription",
          "type": "string"
        },
        {
          "internalType": "uint256",
          "name": "_target",
          "type": "uint256"
        },
        {
          "internalType": "uint256",
          "name": "_deadline",
          "type": "uint256"
        }
      ],
      "name": "createProject",
      "outputs": [],
      "stateMutability": "nonpayable",
      "type": "function"
    },
    {
      "inputs": [
        {
          "internalType": "uint256",
          "name": "_projectIndex",
          "type": "uint256"
        },
        {
          "internalType": "address",
          "name": "_donator",
          "type": "address"
        },
        {
          "internalType": "uint256",
          "name": "_amount",
          "type": "uint256"
        }
      ],
      "name": "donateOnProject",
      "outputs": [],
      "stateMutability": "nonpayable",
      "type": "function"
    },
    {
      "inputs": [],
      "name": "getNumProjects",
      "outputs": [
        {
          "internalType": "uint256",
          "name": "",
          "type": "uint256"
        }
      ],
      "stateMutability": "view",
      "type": "function"
    },
    {
      "inputs": [],
      "name": "numProjects",
      "outputs": [
        {
          "internalType": "uint256",
          "name": "",
          "type": "uint256"
        }
      ],
      "stateMutability": "view",
      "type": "function"
    },
    {
      "inputs": [
        {
          "internalType": "uint256",
          "name": "",
          "type": "uint256"
        }
      ],
      "name": "projects",
      "outputs": [
        {
          "internalType": "address",
          "name": "owner",
          "type": "address"
        },
        {
          "internalType": "string",
          "name": "pName",
          "type": "string"
        },
        {
          "internalType": "string",
          "name": "pdescription",
          "type": "string"
        },
        {
          "internalType": "uint256",
          "name": "target",
          "type": "uint256"
        },
        {
          "internalType": "uint256",
          "name": "timeCreated",
          "type": "uint256"
        },
        {
          "internalType": "uint256",
          "name": "deadline",
          "type": "uint256"
        },
        {
          "internalType": "uint256",
          "name": "amountCollected",
          "type": "uint256"
        }
      ],
      "stateMutability": "view",
      "type": "function"
    },
    {
      "inputs": [
        {
          "internalType": "uint256",
          "name": "_projectIndex",
          "type": "uint256"
        },
        {
          "internalType": "address payable",
          "name": "_pOwner",
          "type": "address"
        }
      ],
      "name": "withdrawFunding",
      "outputs": [],
      "stateMutability": "nonpayable",
      "type": "function"
    }
  ],
  "bytecode": "0x6080604052600060015534801561001557600080fd5b50610de1806100256000396000f3fe608060405234801561001057600080fd5b50600436106100625760003560e01c8063107046bd1461006757806316ff5b871461009d5780635a067baa146100bb5780635d43fa45146100d9578063767ece37146100f5578063ad6836ce14610111575b600080fd5b610081600480360381019061007c919061056d565b61012d565b6040516100949796959493929190610683565b60405180910390f35b6100a561029f565b6040516100b29190610700565b60405180910390f35b6100c36102a9565b6040516100d09190610700565b60405180910390f35b6100f360048036038101906100ee919061087c565b6102af565b005b61010f600480360381019061010a919061092f565b610383565b005b61012b600480360381019061012691906109c0565b610435565b005b60006020528060005260406000206000915090508060000160009054906101000a900473ffffffffffffffffffffffffffffffffffffffff169080600101805461017690610a2f565b80601f01602080910402602001604051908101604052809291908181526020018280546101a290610a2f565b80156101ef5780601f106101c4576101008083540402835291602001916101ef565b820191906000526020600020905b8154815290600101906020018083116101d257829003601f168201915b50505050509080600201805461020490610a2f565b80601f016020809104026020016040519081016040528092919081815260200182805461023090610a2f565b801561027d5780601f106102525761010080835404028352916020019161027d565b820191906000526020600020905b81548152906001019060200180831161026057829003601f168201915b5050505050908060030154908060040154908060050154908060060154905087565b6000600154905090565b60015481565b600080600060015481526020019081526020016000209050428160050154106102d757600080fd5b858160000160006101000a81548173ffffffffffffffffffffffffffffffffffffffff021916908373ffffffffffffffffffffffffffffffffffffffff1602179055508481600101908161032b9190610c0c565b508381600201908161033d9190610c0c565b50828160030181905550428160040181905550818160050181905550600081600601819055506001600081548092919061037690610d0d565b9190505550505050505050565b826000808281526020019081526020016000206003015460008083815260200190815260200160002060060154106103ba57600080fd5b60008060008681526020019081526020016000209050828160070160008673ffffffffffffffffffffffffffffffffffffffff1673ffffffffffffffffffffffffffffffffffffffff168152602001908152602001600020819055508281600601546104269190610d55565b81600601819055505050505050565b8181600080600084815260200190815260200160002090508173ffffffffffffffffffffffffffffffffffffffff1660008085815260200190815260200160002060000160009054906101000a900473ffffffffffffffffffffffffffffffffffffffff1673ffffffffffffffffffffffffffffffffffffffff16146104ba57600080fd5b600080600087815260200190815260200160002090508473ffffffffffffffffffffffffffffffffffffffff166108fc82600601549081150290604051600060405180830381858888f1935050505015801561051a573d6000803e3d6000fd5b50505050505050565b6000604051905090565b600080fd5b600080fd5b6000819050919050565b61054a81610537565b811461055557600080fd5b50565b60008135905061056781610541565b92915050565b6000602082840312156105835761058261052d565b5b600061059184828501610558565b91505092915050565b600073ffffffffffffffffffffffffffffffffffffffff82169050919050565b60006105c58261059a565b9050919050565b6105d5816105ba565b82525050565b600081519050919050565b600082825260208201905092915050565b60005b838110156106155780820151818401526020810190506105fa565b83811115610624576000848401525b50505050565b6000601f19601f8301169050919050565b6000610646826105db565b61065081856105e6565b93506106608185602086016105f7565b6106698161062a565b840191505092915050565b61067d81610537565b82525050565b600060e082019050610698600083018a6105cc565b81810360208301526106aa818961063b565b905081810360408301526106be818861063b565b90506106cd6060830187610674565b6106da6080830186610674565b6106e760a0830185610674565b6106f460c0830184610674565b98975050505050505050565b60006020820190506107156000830184610674565b92915050565b610724816105ba565b811461072f57600080fd5b50565b6000813590506107418161071b565b92915050565b600080fd5b600080fd5b7f4e487b7100000000000000000000000000000000000000000000000000000000600052604160045260246000fd5b6107898261062a565b810181811067ffffffffffffffff821117156107a8576107a7610751565b5b80604052505050565b60006107bb610523565b90506107c78282610780565b919050565b600067ffffffffffffffff8211156107e7576107e6610751565b5b6107f08261062a565b9050602081019050919050565b82818337600083830152505050565b600061081f61081a846107cc565b6107b1565b90508281526020810184848401111561083b5761083a61074c565b5b6108468482856107fd565b509392505050565b600082601f83011261086357610862610747565b5b813561087384826020860161080c565b91505092915050565b600080600080600060a086880312156108985761089761052d565b5b60006108a688828901610732565b955050602086013567ffffffffffffffff8111156108c7576108c6610532565b5b6108d38882890161084e565b945050604086013567ffffffffffffffff8111156108f4576108f3610532565b5b6109008882890161084e565b935050606061091188828901610558565b925050608061092288828901610558565b9150509295509295909350565b6000806000606084860312156109485761094761052d565b5b600061095686828701610558565b935050602061096786828701610732565b925050604061097886828701610558565b9150509250925092565b600061098d8261059a565b9050919050565b61099d81610982565b81146109a857600080fd5b50565b6000813590506109ba81610994565b92915050565b600080604083850312156109d7576109d661052d565b5b60006109e585828601610558565b92505060206109f6858286016109ab565b9150509250929050565b7f4e487b7100000000000000000000000000000000000000000000000000000000600052602260045260246000fd5b60006002820490506001821680610a4757607f821691505b602082108103610a5a57610a59610a00565b5b50919050565b60008190508160005260206000209050919050565b60006020601f8301049050919050565b600082821b905092915050565b600060088302610ac27fffffffffffffffffffffffffffffffffffffffffffffffffffffffffffffffff82610a85565b610acc8683610a85565b95508019841693508086168417925050509392505050565b6000819050919050565b6000610b09610b04610aff84610537565b610ae4565b610537565b9050919050565b6000819050919050565b610b2383610aee565b610b37610b2f82610b10565b848454610a92565b825550505050565b600090565b610b4c610b3f565b610b57818484610b1a565b505050565b5b81811015610b7b57610b70600082610b44565b600181019050610b5d565b5050565b601f821115610bc057610b9181610a60565b610b9a84610a75565b81016020851015610ba9578190505b610bbd610bb585610a75565b830182610b5c565b50505b505050565b600082821c905092915050565b6000610be360001984600802610bc5565b1980831691505092915050565b6000610bfc8383610bd2565b9150826002028217905092915050565b610c15826105db565b67ffffffffffffffff811115610c2e57610c2d610751565b5b610c388254610a2f565b610c43828285610b7f565b600060209050601f831160018114610c765760008415610c64578287015190505b610c6e8582610bf0565b865550610cd6565b601f198416610c8486610a60565b60005b82811015610cac57848901518255600182019150602085019450602081019050610c87565b86831015610cc95784890151610cc5601f891682610bd2565b8355505b6001600288020188555050505b505050505050565b7f4e487b7100000000000000000000000000000000000000000000000000000000600052601160045260246000fd5b6000610d1882610537565b91507fffffffffffffffffffffffffffffffffffffffffffffffffffffffffffffffff8203610d4a57610d49610cde565b5b600182019050919050565b6000610d6082610537565b9150610d6b83610537565b9250827fffffffffffffffffffffffffffffffffffffffffffffffffffffffffffffffff03821115610da057610d9f610cde565b5b82820190509291505056fea2646970667358221220c966303d8116e27c030d23fd5aaa1688ff7f6374afb61eace71596aaf72533e264736f6c634300080f0033",
  "linkReferences": {},
  "deployedLinkReferences": {}
}