{
  "_format": "hh-sol-artifact-1",
  "contractName": "CrowdFundingFinal",
  "sourceName": "contracts/CrowdFundingFinal.sol",
  "abi": [
    {
      "inputs": [
        {
          "internalType": "address",
          "name": "_owner",
          "type": "address"
        },
        {
          "internalType": "string",
          "name": "_pName",
          "type": "string"
        },
        {
          "internalType": "string",
          "name": "_pdescription",
          "type": "string"
        },
        {
          "internalType": "uint256",
          "name": "_target",
          "type": "uint256"
        },
        {
          "internalType": "uint256",
          "name": "_deadline",
          "type": "uint256"
        }
      ],
      "name": "createProject",
      "outputs": [
        {
          "internalType": "uint256",
          "name": "",
          "type": "uint256"
        }
      ],
      "stateMutability": "nonpayable",
      "type": "function"
    },
    {
      "inputs": [
        {
          "internalType": "uint256",
          "name": "_projectIndex",
          "type": "uint256"
        },
        {
          "internalType": "address",
          "name": "_donator",
          "type": "address"
        },
        {
          "internalType": "uint256",
          "name": "_amount",
          "type": "uint256"
        }
      ],
      "name": "donateOnProject",
      "outputs": [],
      "stateMutability": "nonpayable",
      "type": "function"
    },
    {
      "inputs": [],
      "name": "getNumProjects",
      "outputs": [
        {
          "internalType": "uint256",
          "name": "",
          "type": "uint256"
        }
      ],
      "stateMutability": "view",
      "type": "function"
    },
    {
      "inputs": [
        {
          "internalType": "uint256",
          "name": "id",
          "type": "uint256"
        }
      ],
      "name": "getProject",
      "outputs": [
        {
          "internalType": "address",
          "name": "",
          "type": "address"
        },
        {
          "internalType": "string",
          "name": "",
          "type": "string"
        },
        {
          "internalType": "string",
          "name": "",
          "type": "string"
        },
        {
          "internalType": "uint256",
          "name": "",
          "type": "uint256"
        },
        {
          "internalType": "uint256",
          "name": "",
          "type": "uint256"
        },
        {
          "internalType": "uint256",
          "name": "",
          "type": "uint256"
        },
        {
          "internalType": "uint256",
          "name": "",
          "type": "uint256"
        }
      ],
      "stateMutability": "view",
      "type": "function"
    },
    {
      "inputs": [],
      "name": "numProjects",
      "outputs": [
        {
          "internalType": "uint256",
          "name": "",
          "type": "uint256"
        }
      ],
      "stateMutability": "view",
      "type": "function"
    },
    {
      "inputs": [
        {
          "internalType": "uint256",
          "name": "",
          "type": "uint256"
        }
      ],
      "name": "projects",
      "outputs": [
        {
          "internalType": "address",
          "name": "owner",
          "type": "address"
        },
        {
          "internalType": "string",
          "name": "pName",
          "type": "string"
        },
        {
          "internalType": "string",
          "name": "pdescription",
          "type": "string"
        },
        {
          "internalType": "uint256",
          "name": "target",
          "type": "uint256"
        },
        {
          "internalType": "uint256",
          "name": "timeCreated",
          "type": "uint256"
        },
        {
          "internalType": "uint256",
          "name": "deadline",
          "type": "uint256"
        },
        {
          "internalType": "uint256",
          "name": "amountCollected",
          "type": "uint256"
        }
      ],
      "stateMutability": "view",
      "type": "function"
    },
    {
      "inputs": [
        {
          "internalType": "uint256",
          "name": "_projectIndex",
          "type": "uint256"
        },
        {
          "internalType": "address payable",
          "name": "_pOwner",
          "type": "address"
        }
      ],
      "name": "withdrawFunding",
      "outputs": [],
      "stateMutability": "nonpayable",
      "type": "function"
    }
  ],
  "bytecode": "0x6080604052600060015534801561001557600080fd5b50611081806100256000396000f3fe608060405234801561001057600080fd5b506004361061007d5760003560e01c80635d43fa451161005b5780635d43fa45146100f4578063767ece3714610124578063ad6836ce14610140578063f0f3f2c81461015c5761007d565b8063107046bd1461008257806316ff5b87146100b85780635a067baa146100d6575b600080fd5b61009c600480360381019061009791906107d9565b610192565b6040516100af97969594939291906108ef565b60405180910390f35b6100c0610304565b6040516100cd919061096c565b60405180910390f35b6100de61030e565b6040516100eb919061096c565b60405180910390f35b61010e60048036038101906101099190610ae8565b610314565b60405161011b919061096c565b60405180910390f35b61013e60048036038101906101399190610b9b565b6103fb565b005b61015a60048036038101906101559190610c2c565b6104ad565b005b610176600480360381019061017191906107d9565b61059b565b60405161018997969594939291906108ef565b60405180910390f35b60006020528060005260406000206000915090508060000160009054906101000a900473ffffffffffffffffffffffffffffffffffffffff16908060010180546101db90610c9b565b80601f016020809104026020016040519081016040528092919081815260200182805461020790610c9b565b80156102545780601f1061022957610100808354040283529160200191610254565b820191906000526020600020905b81548152906001019060200180831161023757829003601f168201915b50505050509080600201805461026990610c9b565b80601f016020809104026020016040519081016040528092919081815260200182805461029590610c9b565b80156102e25780601f106102b7576101008083540402835291602001916102e2565b820191906000526020600020905b8154815290600101906020018083116102c557829003601f168201915b5050505050908060030154908060040154908060050154908060060154905087565b6000600154905090565b60015481565b600080600080600154815260200190815260200160002090504281600501541061033d57600080fd5b868160000160006101000a81548173ffffffffffffffffffffffffffffffffffffffff021916908373ffffffffffffffffffffffffffffffffffffffff160217905550858160010190816103919190610e78565b50848160020190816103a39190610e78565b5083816003018190555042816004018190555082816005018190555060008160060181905550600160008154809291906103dc90610f79565b9190505550600180546103ef9190610fc1565b91505095945050505050565b8260008082815260200190815260200160002060030154600080838152602001908152602001600020600601541061043257600080fd5b60008060008681526020019081526020016000209050828160070160008673ffffffffffffffffffffffffffffffffffffffff1673ffffffffffffffffffffffffffffffffffffffff1681526020019081526020016000208190555082816006015461049e9190610ff5565b81600601819055505050505050565b8181600080600084815260200190815260200160002090508173ffffffffffffffffffffffffffffffffffffffff1660008085815260200190815260200160002060000160009054906101000a900473ffffffffffffffffffffffffffffffffffffffff1673ffffffffffffffffffffffffffffffffffffffff161461053257600080fd5b600080600087815260200190815260200160002090508473ffffffffffffffffffffffffffffffffffffffff166108fc82600601549081150290604051600060405180830381858888f19350505050158015610592573d6000803e3d6000fd5b50505050505050565b600060608060008060008060008089815260200190815260200160002060000160009054906101000a900473ffffffffffffffffffffffffffffffffffffffff166000808a81526020019081526020016000206001016000808b81526020019081526020016000206002016000808c8152602001908152602001600020600301546000808d8152602001908152602001600020600401546000808e8152602001908152602001600020600501546000808f81526020019081526020016000206006015485805461066a90610c9b565b80601f016020809104026020016040519081016040528092919081815260200182805461069690610c9b565b80156106e35780601f106106b8576101008083540402835291602001916106e3565b820191906000526020600020905b8154815290600101906020018083116106c657829003601f168201915b505050505095508480546106f690610c9b565b80601f016020809104026020016040519081016040528092919081815260200182805461072290610c9b565b801561076f5780601f106107445761010080835404028352916020019161076f565b820191906000526020600020905b81548152906001019060200180831161075257829003601f168201915b505050505094509650965096509650965096509650919395979092949650565b6000604051905090565b600080fd5b600080fd5b6000819050919050565b6107b6816107a3565b81146107c157600080fd5b50565b6000813590506107d3816107ad565b92915050565b6000602082840312156107ef576107ee610799565b5b60006107fd848285016107c4565b91505092915050565b600073ffffffffffffffffffffffffffffffffffffffff82169050919050565b600061083182610806565b9050919050565b61084181610826565b82525050565b600081519050919050565b600082825260208201905092915050565b60005b83811015610881578082015181840152602081019050610866565b83811115610890576000848401525b50505050565b6000601f19601f8301169050919050565b60006108b282610847565b6108bc8185610852565b93506108cc818560208601610863565b6108d581610896565b840191505092915050565b6108e9816107a3565b82525050565b600060e082019050610904600083018a610838565b818103602083015261091681896108a7565b9050818103604083015261092a81886108a7565b905061093960608301876108e0565b61094660808301866108e0565b61095360a08301856108e0565b61096060c08301846108e0565b98975050505050505050565b600060208201905061098160008301846108e0565b92915050565b61099081610826565b811461099b57600080fd5b50565b6000813590506109ad81610987565b92915050565b600080fd5b600080fd5b7f4e487b7100000000000000000000000000000000000000000000000000000000600052604160045260246000fd5b6109f582610896565b810181811067ffffffffffffffff82111715610a1457610a136109bd565b5b80604052505050565b6000610a2761078f565b9050610a3382826109ec565b919050565b600067ffffffffffffffff821115610a5357610a526109bd565b5b610a5c82610896565b9050602081019050919050565b82818337600083830152505050565b6000610a8b610a8684610a38565b610a1d565b905082815260208101848484011115610aa757610aa66109b8565b5b610ab2848285610a69565b509392505050565b600082601f830112610acf57610ace6109b3565b5b8135610adf848260208601610a78565b91505092915050565b600080600080600060a08688031215610b0457610b03610799565b5b6000610b128882890161099e565b955050602086013567ffffffffffffffff811115610b3357610b3261079e565b5b610b3f88828901610aba565b945050604086013567ffffffffffffffff811115610b6057610b5f61079e565b5b610b6c88828901610aba565b9350506060610b7d888289016107c4565b9250506080610b8e888289016107c4565b9150509295509295909350565b600080600060608486031215610bb457610bb3610799565b5b6000610bc2868287016107c4565b9350506020610bd38682870161099e565b9250506040610be4868287016107c4565b9150509250925092565b6000610bf982610806565b9050919050565b610c0981610bee565b8114610c1457600080fd5b50565b600081359050610c2681610c00565b92915050565b60008060408385031215610c4357610c42610799565b5b6000610c51858286016107c4565b9250506020610c6285828601610c17565b9150509250929050565b7f4e487b7100000000000000000000000000000000000000000000000000000000600052602260045260246000fd5b60006002820490506001821680610cb357607f821691505b602082108103610cc657610cc5610c6c565b5b50919050565b60008190508160005260206000209050919050565b60006020601f8301049050919050565b600082821b905092915050565b600060088302610d2e7fffffffffffffffffffffffffffffffffffffffffffffffffffffffffffffffff82610cf1565b610d388683610cf1565b95508019841693508086168417925050509392505050565b6000819050919050565b6000610d75610d70610d6b846107a3565b610d50565b6107a3565b9050919050565b6000819050919050565b610d8f83610d5a565b610da3610d9b82610d7c565b848454610cfe565b825550505050565b600090565b610db8610dab565b610dc3818484610d86565b505050565b5b81811015610de757610ddc600082610db0565b600181019050610dc9565b5050565b601f821115610e2c57610dfd81610ccc565b610e0684610ce1565b81016020851015610e15578190505b610e29610e2185610ce1565b830182610dc8565b50505b505050565b600082821c905092915050565b6000610e4f60001984600802610e31565b1980831691505092915050565b6000610e688383610e3e565b9150826002028217905092915050565b610e8182610847565b67ffffffffffffffff811115610e9a57610e996109bd565b5b610ea48254610c9b565b610eaf828285610deb565b600060209050601f831160018114610ee25760008415610ed0578287015190505b610eda8582610e5c565b865550610f42565b601f198416610ef086610ccc565b60005b82811015610f1857848901518255600182019150602085019450602081019050610ef3565b86831015610f355784890151610f31601f891682610e3e565b8355505b6001600288020188555050505b505050505050565b7f4e487b7100000000000000000000000000000000000000000000000000000000600052601160045260246000fd5b6000610f84826107a3565b91507fffffffffffffffffffffffffffffffffffffffffffffffffffffffffffffffff8203610fb657610fb5610f4a565b5b600182019050919050565b6000610fcc826107a3565b9150610fd7836107a3565b925082821015610fea57610fe9610f4a565b5b828203905092915050565b6000611000826107a3565b915061100b836107a3565b9250827fffffffffffffffffffffffffffffffffffffffffffffffffffffffffffffffff038211156110405761103f610f4a565b5b82820190509291505056fea264697066735822122098e3f177a647efda973a3aff1113f104964808953367464ee001ba312294094964736f6c634300080f0033",
  "linkReferences": {},
  "deployedLinkReferences": {}
}