{
  "_format": "hh-sol-artifact-1",
  "contractName": "CrowdFundingFinal",
  "sourceName": "contracts/CrowdFundingFinal.sol",
  "abi": [
    {
      "stateMutability": "payable",
      "type": "fallback"
    },
    {
      "inputs": [
        {
          "internalType": "address",
          "name": "_owner",
          "type": "address"
        },
        {
          "internalType": "string",
          "name": "_pName",
          "type": "string"
        },
        {
          "internalType": "string",
          "name": "_pdescription",
          "type": "string"
        },
        {
          "internalType": "uint256",
          "name": "_target",
          "type": "uint256"
        },
        {
          "internalType": "uint256",
          "name": "_deadline",
          "type": "uint256"
        }
      ],
      "name": "createProject",
      "outputs": [
        {
          "internalType": "uint256",
          "name": "",
          "type": "uint256"
        }
      ],
      "stateMutability": "nonpayable",
      "type": "function"
    },
    {
      "inputs": [
        {
          "internalType": "uint256",
          "name": "_projectIndex",
          "type": "uint256"
        },
        {
          "internalType": "address payable",
          "name": "_donator",
          "type": "address"
        },
        {
          "internalType": "uint256",
          "name": "_amount",
          "type": "uint256"
        }
      ],
      "name": "donateOnProject",
      "outputs": [],
      "stateMutability": "payable",
      "type": "function"
    },
    {
      "inputs": [],
      "name": "getNumProjects",
      "outputs": [
        {
          "internalType": "uint256",
          "name": "",
          "type": "uint256"
        }
      ],
      "stateMutability": "view",
      "type": "function"
    },
    {
      "inputs": [
        {
          "internalType": "uint256",
          "name": "id",
          "type": "uint256"
        }
      ],
      "name": "getProject",
      "outputs": [
        {
          "internalType": "address",
          "name": "",
          "type": "address"
        },
        {
          "internalType": "string",
          "name": "",
          "type": "string"
        },
        {
          "internalType": "string",
          "name": "",
          "type": "string"
        },
        {
          "internalType": "uint256",
          "name": "",
          "type": "uint256"
        },
        {
          "internalType": "uint256",
          "name": "",
          "type": "uint256"
        },
        {
          "internalType": "uint256",
          "name": "",
          "type": "uint256"
        },
        {
          "internalType": "uint256",
          "name": "",
          "type": "uint256"
        }
      ],
      "stateMutability": "view",
      "type": "function"
    },
    {
      "inputs": [],
      "name": "numProjects",
      "outputs": [
        {
          "internalType": "uint256",
          "name": "",
          "type": "uint256"
        }
      ],
      "stateMutability": "view",
      "type": "function"
    },
    {
      "inputs": [
        {
          "internalType": "uint256",
          "name": "",
          "type": "uint256"
        }
      ],
      "name": "projects",
      "outputs": [
        {
          "internalType": "address",
          "name": "owner",
          "type": "address"
        },
        {
          "internalType": "string",
          "name": "pName",
          "type": "string"
        },
        {
          "internalType": "string",
          "name": "pdescription",
          "type": "string"
        },
        {
          "internalType": "uint256",
          "name": "target",
          "type": "uint256"
        },
        {
          "internalType": "uint256",
          "name": "timeCreated",
          "type": "uint256"
        },
        {
          "internalType": "uint256",
          "name": "deadline",
          "type": "uint256"
        },
        {
          "internalType": "uint256",
          "name": "amountCollected",
          "type": "uint256"
        }
      ],
      "stateMutability": "view",
      "type": "function"
    },
    {
      "inputs": [
        {
          "internalType": "uint256",
          "name": "_projectIndex",
          "type": "uint256"
        },
        {
          "internalType": "address payable",
          "name": "_pOwner",
          "type": "address"
        }
      ],
      "name": "withdrawFunding",
      "outputs": [],
      "stateMutability": "nonpayable",
      "type": "function"
    },
    {
      "stateMutability": "payable",
      "type": "receive"
    }
  ],
  "bytecode": "0x6080604052600060015534801561001557600080fd5b5061131d806100256000396000f3fe6080604052600436106100745760003560e01c80635d43fa451161004e5780635d43fa4514610116578063767ece3714610153578063ad6836ce1461016f578063f0f3f2c8146101985761007b565b8063107046bd1461007d57806316ff5b87146100c05780635a067baa146100eb5761007b565b3661007b57005b005b34801561008957600080fd5b506100a4600480360381019061009f9190610975565b6101db565b6040516100b79796959493929190610a8b565b60405180910390f35b3480156100cc57600080fd5b506100d561034d565b6040516100e29190610b08565b60405180910390f35b3480156100f757600080fd5b50610100610357565b60405161010d9190610b08565b60405180910390f35b34801561012257600080fd5b5061013d60048036038101906101389190610c84565b61035d565b60405161014a9190610b08565b60405180910390f35b61016d60048036038101906101689190610d75565b61049d565b005b34801561017b57600080fd5b5061019660048036038101906101919190610dc8565b610607565b005b3480156101a457600080fd5b506101bf60048036038101906101ba9190610975565b610737565b6040516101d29796959493929190610a8b565b60405180910390f35b60006020528060005260406000206000915090508060000160009054906101000a900473ffffffffffffffffffffffffffffffffffffffff169080600101805461022490610e37565b80601f016020809104026020016040519081016040528092919081815260200182805461025090610e37565b801561029d5780601f106102725761010080835404028352916020019161029d565b820191906000526020600020905b81548152906001019060200180831161028057829003601f168201915b5050505050908060020180546102b290610e37565b80601f01602080910402602001604051908101604052809291908181526020018280546102de90610e37565b801561032b5780601f106103005761010080835404028352916020019161032b565b820191906000526020600020905b81548152906001019060200180831161030e57829003601f168201915b5050505050908060030154908060040154908060050154908060060154905087565b6000600154905090565b60015481565b600080600080600154815260200190815260200160002090504281600501541061038657600080fd5b868160000160006101000a81548173ffffffffffffffffffffffffffffffffffffffff021916908373ffffffffffffffffffffffffffffffffffffffff160217905550858160010190816103da9190611014565b50848160020190816103ec9190611014565b50670de0b6b3a7640000846104019190611115565b81600301819055506018603c8042610419919061119e565b610423919061119e565b61042d919061119e565b81600401819055506018603c8085610445919061119e565b61044f919061119e565b610459919061119e565b8160050181905550600081600601819055506001600081548092919061047e906111cf565b9190505550600180546104919190611217565b91505095945050505050565b826000808281526020019081526020016000206003015460008083815260200190815260200160002060060154106104d457600080fd5b813410156104e157600080fd5b60008060008681526020019081526020016000209050828160070160008673ffffffffffffffffffffffffffffffffffffffff1673ffffffffffffffffffffffffffffffffffffffff1681526020019081526020016000208190555060008160000160009054906101000a900473ffffffffffffffffffffffffffffffffffffffff1673ffffffffffffffffffffffffffffffffffffffff16670de0b6b3a76400008561058e9190611115565b60405161059a9061127c565b60006040518083038185875af1925050503d80600081146105d7576040519150601f19603f3d011682016040523d82523d6000602084013e6105dc565b606091505b5050905080156105ff578382600601546105f69190611291565b82600601819055505b505050505050565b8181600080600084815260200190815260200160002090508173ffffffffffffffffffffffffffffffffffffffff1660008085815260200190815260200160002060000160009054906101000a900473ffffffffffffffffffffffffffffffffffffffff1673ffffffffffffffffffffffffffffffffffffffff161461068c57600080fd5b60008473ffffffffffffffffffffffffffffffffffffffff16600080888152602001908152602001600020600601546040516106c79061127c565b60006040518083038185875af1925050503d8060008114610704576040519150601f19603f3d011682016040523d82523d6000602084013e610709565b606091505b50509050801561072f576000806000888152602001908152602001600020600601819055505b505050505050565b600060608060008060008060008089815260200190815260200160002060000160009054906101000a900473ffffffffffffffffffffffffffffffffffffffff166000808a81526020019081526020016000206001016000808b81526020019081526020016000206002016000808c8152602001908152602001600020600301546000808d8152602001908152602001600020600401546000808e8152602001908152602001600020600501546000808f81526020019081526020016000206006015485805461080690610e37565b80601f016020809104026020016040519081016040528092919081815260200182805461083290610e37565b801561087f5780601f106108545761010080835404028352916020019161087f565b820191906000526020600020905b81548152906001019060200180831161086257829003601f168201915b5050505050955084805461089290610e37565b80601f01602080910402602001604051908101604052809291908181526020018280546108be90610e37565b801561090b5780601f106108e05761010080835404028352916020019161090b565b820191906000526020600020905b8154815290600101906020018083116108ee57829003601f168201915b505050505094509650965096509650965096509650919395979092949650565b6000604051905090565b600080fd5b600080fd5b6000819050919050565b6109528161093f565b811461095d57600080fd5b50565b60008135905061096f81610949565b92915050565b60006020828403121561098b5761098a610935565b5b600061099984828501610960565b91505092915050565b600073ffffffffffffffffffffffffffffffffffffffff82169050919050565b60006109cd826109a2565b9050919050565b6109dd816109c2565b82525050565b600081519050919050565b600082825260208201905092915050565b60005b83811015610a1d578082015181840152602081019050610a02565b83811115610a2c576000848401525b50505050565b6000601f19601f8301169050919050565b6000610a4e826109e3565b610a5881856109ee565b9350610a688185602086016109ff565b610a7181610a32565b840191505092915050565b610a858161093f565b82525050565b600060e082019050610aa0600083018a6109d4565b8181036020830152610ab28189610a43565b90508181036040830152610ac68188610a43565b9050610ad56060830187610a7c565b610ae26080830186610a7c565b610aef60a0830185610a7c565b610afc60c0830184610a7c565b98975050505050505050565b6000602082019050610b1d6000830184610a7c565b92915050565b610b2c816109c2565b8114610b3757600080fd5b50565b600081359050610b4981610b23565b92915050565b600080fd5b600080fd5b7f4e487b7100000000000000000000000000000000000000000000000000000000600052604160045260246000fd5b610b9182610a32565b810181811067ffffffffffffffff82111715610bb057610baf610b59565b5b80604052505050565b6000610bc361092b565b9050610bcf8282610b88565b919050565b600067ffffffffffffffff821115610bef57610bee610b59565b5b610bf882610a32565b9050602081019050919050565b82818337600083830152505050565b6000610c27610c2284610bd4565b610bb9565b905082815260208101848484011115610c4357610c42610b54565b5b610c4e848285610c05565b509392505050565b600082601f830112610c6b57610c6a610b4f565b5b8135610c7b848260208601610c14565b91505092915050565b600080600080600060a08688031215610ca057610c9f610935565b5b6000610cae88828901610b3a565b955050602086013567ffffffffffffffff811115610ccf57610cce61093a565b5b610cdb88828901610c56565b945050604086013567ffffffffffffffff811115610cfc57610cfb61093a565b5b610d0888828901610c56565b9350506060610d1988828901610960565b9250506080610d2a88828901610960565b9150509295509295909350565b6000610d42826109a2565b9050919050565b610d5281610d37565b8114610d5d57600080fd5b50565b600081359050610d6f81610d49565b92915050565b600080600060608486031215610d8e57610d8d610935565b5b6000610d9c86828701610960565b9350506020610dad86828701610d60565b9250506040610dbe86828701610960565b9150509250925092565b60008060408385031215610ddf57610dde610935565b5b6000610ded85828601610960565b9250506020610dfe85828601610d60565b9150509250929050565b7f4e487b7100000000000000000000000000000000000000000000000000000000600052602260045260246000fd5b60006002820490506001821680610e4f57607f821691505b602082108103610e6257610e61610e08565b5b50919050565b60008190508160005260206000209050919050565b60006020601f8301049050919050565b600082821b905092915050565b600060088302610eca7fffffffffffffffffffffffffffffffffffffffffffffffffffffffffffffffff82610e8d565b610ed48683610e8d565b95508019841693508086168417925050509392505050565b6000819050919050565b6000610f11610f0c610f078461093f565b610eec565b61093f565b9050919050565b6000819050919050565b610f2b83610ef6565b610f3f610f3782610f18565b848454610e9a565b825550505050565b600090565b610f54610f47565b610f5f818484610f22565b505050565b5b81811015610f8357610f78600082610f4c565b600181019050610f65565b5050565b601f821115610fc857610f9981610e68565b610fa284610e7d565b81016020851015610fb1578190505b610fc5610fbd85610e7d565b830182610f64565b50505b505050565b600082821c905092915050565b6000610feb60001984600802610fcd565b1980831691505092915050565b60006110048383610fda565b9150826002028217905092915050565b61101d826109e3565b67ffffffffffffffff81111561103657611035610b59565b5b6110408254610e37565b61104b828285610f87565b600060209050601f83116001811461107e576000841561106c578287015190505b6110768582610ff8565b8655506110de565b601f19841661108c86610e68565b60005b828110156110b45784890151825560018201915060208501945060208101905061108f565b868310156110d157848901516110cd601f891682610fda565b8355505b6001600288020188555050505b505050505050565b7f4e487b7100000000000000000000000000000000000000000000000000000000600052601160045260246000fd5b60006111208261093f565b915061112b8361093f565b9250817fffffffffffffffffffffffffffffffffffffffffffffffffffffffffffffffff0483118215151615611164576111636110e6565b5b828202905092915050565b7f4e487b7100000000000000000000000000000000000000000000000000000000600052601260045260246000fd5b60006111a98261093f565b91506111b48361093f565b9250826111c4576111c361116f565b5b828204905092915050565b60006111da8261093f565b91507fffffffffffffffffffffffffffffffffffffffffffffffffffffffffffffffff820361120c5761120b6110e6565b5b600182019050919050565b60006112228261093f565b915061122d8361093f565b9250828210156112405761123f6110e6565b5b828203905092915050565b600081905092915050565b50565b600061126660008361124b565b915061127182611256565b600082019050919050565b600061128782611259565b9150819050919050565b600061129c8261093f565b91506112a78361093f565b9250827fffffffffffffffffffffffffffffffffffffffffffffffffffffffffffffffff038211156112dc576112db6110e6565b5b82820190509291505056fea264697066735822122034126ed1c055af122631594473a8e9b2ceb34963d8b66280cdee3e67868d7f9464736f6c634300080f0033",
  "linkReferences": {},
  "deployedLinkReferences": {}
}